{
  "_format": "hh-sol-artifact-1",
  "contractName": "NFTAuction",
  "sourceName": "contracts/NFTAuction.sol",
  "abi": [
    {
      "inputs": [
        {
          "internalType": "string",
          "name": "_initBaseURI",
          "type": "string"
        },
        {
          "internalType": "string",
          "name": "tokenName",
          "type": "string"
        },
        {
          "internalType": "string",
          "name": "tokenSymbol",
          "type": "string"
        }
      ],
      "stateMutability": "nonpayable",
      "type": "constructor"
    },
    {
      "inputs": [],
      "name": "ApprovalCallerNotOwnerNorApproved",
      "type": "error"
    },
    {
      "inputs": [],
      "name": "ApprovalQueryForNonexistentToken",
      "type": "error"
    },
    {
      "inputs": [],
      "name": "BalanceQueryForZeroAddress",
      "type": "error"
    },
    {
      "inputs": [],
      "name": "MintERC2309QuantityExceedsLimit",
      "type": "error"
    },
    {
      "inputs": [],
      "name": "MintToZeroAddress",
      "type": "error"
    },
    {
      "inputs": [],
      "name": "MintZeroQuantity",
      "type": "error"
    },
    {
      "inputs": [],
      "name": "NotCompatibleWithSpotMints",
      "type": "error"
    },
    {
      "inputs": [
        {
          "internalType": "address",
          "name": "owner",
          "type": "address"
        }
      ],
      "name": "OwnableInvalidOwner",
      "type": "error"
    },
    {
      "inputs": [
        {
          "internalType": "address",
          "name": "account",
          "type": "address"
        }
      ],
      "name": "OwnableUnauthorizedAccount",
      "type": "error"
    },
    {
      "inputs": [],
      "name": "OwnerQueryForNonexistentToken",
      "type": "error"
    },
    {
      "inputs": [],
      "name": "OwnershipNotInitializedForExtraData",
      "type": "error"
    },
    {
      "inputs": [],
      "name": "ReentrancyGuardReentrantCall",
      "type": "error"
    },
    {
      "inputs": [],
      "name": "SequentialMintExceedsLimit",
      "type": "error"
    },
    {
      "inputs": [],
      "name": "SequentialUpToTooSmall",
      "type": "error"
    },
    {
      "inputs": [],
      "name": "SpotMintTokenIdTooSmall",
      "type": "error"
    },
    {
      "inputs": [],
      "name": "TokenAlreadyExists",
      "type": "error"
    },
    {
      "inputs": [],
      "name": "TokenIdsNotStrictlyAscending",
      "type": "error"
    },
    {
      "inputs": [],
      "name": "TransferCallerNotOwnerNorApproved",
      "type": "error"
    },
    {
      "inputs": [],
      "name": "TransferFromIncorrectOwner",
      "type": "error"
    },
    {
      "inputs": [],
      "name": "TransferToNonERC721ReceiverImplementer",
      "type": "error"
    },
    {
      "inputs": [],
      "name": "TransferToZeroAddress",
      "type": "error"
    },
    {
      "inputs": [],
      "name": "URIQueryForNonexistentToken",
      "type": "error"
    },
    {
      "anonymous": false,
      "inputs": [
        {
          "indexed": true,
          "internalType": "address",
          "name": "owner",
          "type": "address"
        },
        {
          "indexed": true,
          "internalType": "address",
          "name": "approved",
          "type": "address"
        },
        {
          "indexed": true,
          "internalType": "uint256",
          "name": "tokenId",
          "type": "uint256"
        }
      ],
      "name": "Approval",
      "type": "event"
    },
    {
      "anonymous": false,
      "inputs": [
        {
          "indexed": true,
          "internalType": "address",
          "name": "owner",
          "type": "address"
        },
        {
          "indexed": true,
          "internalType": "address",
          "name": "operator",
          "type": "address"
        },
        {
          "indexed": false,
          "internalType": "bool",
          "name": "approved",
          "type": "bool"
        }
      ],
      "name": "ApprovalForAll",
      "type": "event"
    },
    {
      "anonymous": false,
      "inputs": [
        {
          "indexed": false,
          "internalType": "uint256",
          "name": "tokenId",
          "type": "uint256"
        },
        {
          "indexed": false,
          "internalType": "uint256",
          "name": "startTime",
          "type": "uint256"
        },
        {
          "indexed": false,
          "internalType": "uint256",
          "name": "endTime",
          "type": "uint256"
        },
        {
          "indexed": false,
          "internalType": "uint256",
          "name": "basePrice",
          "type": "uint256"
        }
      ],
      "name": "AuctionCreated",
      "type": "event"
    },
    {
      "anonymous": false,
      "inputs": [
        {
          "indexed": false,
          "internalType": "uint256",
          "name": "tokenId",
          "type": "uint256"
        }
      ],
      "name": "AuctionEnded",
      "type": "event"
    },
    {
      "anonymous": false,
      "inputs": [
        {
          "indexed": false,
          "internalType": "uint256",
          "name": "tokenId",
          "type": "uint256"
        },
        {
          "indexed": false,
          "internalType": "address",
          "name": "bidder",
          "type": "address"
        },
        {
          "indexed": false,
          "internalType": "uint256",
          "name": "amount",
          "type": "uint256"
        }
      ],
      "name": "BidPlaced",
      "type": "event"
    },
    {
      "anonymous": false,
      "inputs": [
        {
          "indexed": true,
          "internalType": "uint256",
          "name": "fromTokenId",
          "type": "uint256"
        },
        {
          "indexed": false,
          "internalType": "uint256",
          "name": "toTokenId",
          "type": "uint256"
        },
        {
          "indexed": true,
          "internalType": "address",
          "name": "from",
          "type": "address"
        },
        {
          "indexed": true,
          "internalType": "address",
          "name": "to",
          "type": "address"
        }
      ],
      "name": "ConsecutiveTransfer",
      "type": "event"
    },
    {
      "anonymous": false,
      "inputs": [
        {
          "indexed": false,
          "internalType": "address",
          "name": "operator",
          "type": "address"
        },
        {
          "indexed": false,
          "internalType": "address",
          "name": "from",
          "type": "address"
        },
        {
          "indexed": false,
          "internalType": "uint256",
          "name": "tokenId",
          "type": "uint256"
        }
      ],
      "name": "ERC721Received",
      "type": "event"
    },
    {
      "anonymous": false,
      "inputs": [
        {
          "indexed": true,
          "internalType": "address",
          "name": "previousOwner",
          "type": "address"
        },
        {
          "indexed": true,
          "internalType": "address",
          "name": "newOwner",
          "type": "address"
        }
      ],
      "name": "OwnershipTransferred",
      "type": "event"
    },
    {
      "anonymous": false,
      "inputs": [
        {
          "indexed": true,
          "internalType": "address",
          "name": "from",
          "type": "address"
        },
        {
          "indexed": true,
          "internalType": "address",
          "name": "to",
          "type": "address"
        },
        {
          "indexed": true,
          "internalType": "uint256",
          "name": "tokenId",
          "type": "uint256"
        }
      ],
      "name": "Transfer",
      "type": "event"
    },
    {
      "inputs": [],
      "name": "MAX_SUPPLY",
      "outputs": [
        {
          "internalType": "uint256",
          "name": "",
          "type": "uint256"
        }
      ],
      "stateMutability": "view",
      "type": "function"
    },
    {
      "inputs": [
        {
          "internalType": "address",
          "name": "to",
          "type": "address"
        },
        {
          "internalType": "uint256",
          "name": "tokenId",
          "type": "uint256"
        }
      ],
      "name": "approve",
      "outputs": [],
      "stateMutability": "payable",
      "type": "function"
    },
    {
      "inputs": [
        {
          "internalType": "uint256",
          "name": "",
          "type": "uint256"
        }
      ],
      "name": "auctions",
      "outputs": [
        {
          "internalType": "uint256",
          "name": "tokenId",
          "type": "uint256"
        },
        {
          "internalType": "uint256",
          "name": "startTime",
          "type": "uint256"
        },
        {
          "internalType": "uint256",
          "name": "endTime",
          "type": "uint256"
        },
        {
          "internalType": "uint256",
          "name": "basePrice",
          "type": "uint256"
        },
        {
          "internalType": "uint256",
          "name": "highestBid",
          "type": "uint256"
        },
        {
          "internalType": "address",
          "name": "highestBidder",
          "type": "address"
        },
        {
          "internalType": "address",
          "name": "previousBidder",
          "type": "address"
        },
        {
          "internalType": "uint256",
          "name": "minimumBidIncrement",
          "type": "uint256"
        },
        {
          "internalType": "enum NFTAuction.status",
          "name": "status",
          "type": "uint8"
        }
      ],
      "stateMutability": "view",
      "type": "function"
    },
    {
      "inputs": [
        {
          "internalType": "address",
          "name": "owner",
          "type": "address"
        }
      ],
      "name": "balanceOf",
      "outputs": [
        {
          "internalType": "uint256",
          "name": "",
          "type": "uint256"
        }
      ],
      "stateMutability": "view",
      "type": "function"
    },
    {
      "inputs": [],
      "name": "baseExtension",
      "outputs": [
        {
          "internalType": "string",
          "name": "",
          "type": "string"
        }
      ],
      "stateMutability": "view",
      "type": "function"
    },
    {
      "inputs": [],
      "name": "baseURI",
      "outputs": [
        {
          "internalType": "string",
          "name": "",
          "type": "string"
        }
      ],
      "stateMutability": "view",
      "type": "function"
    },
    {
      "inputs": [
        {
          "internalType": "uint256",
          "name": "tokenId",
          "type": "uint256"
        },
        {
          "internalType": "uint256",
          "name": "amount",
          "type": "uint256"
        }
      ],
      "name": "bid",
      "outputs": [],
      "stateMutability": "payable",
      "type": "function"
    },
    {
      "inputs": [
        {
          "internalType": "uint256",
          "name": "",
          "type": "uint256"
        },
        {
          "internalType": "address",
          "name": "",
          "type": "address"
        },
        {
          "internalType": "uint256",
          "name": "",
          "type": "uint256"
        }
      ],
      "name": "bids",
      "outputs": [
        {
          "internalType": "uint256",
          "name": "",
          "type": "uint256"
        }
      ],
      "stateMutability": "view",
      "type": "function"
    },
    {
      "inputs": [
        {
          "internalType": "uint256",
          "name": "startTime",
          "type": "uint256"
        },
        {
          "internalType": "uint256",
          "name": "endTime",
          "type": "uint256"
        }
      ],
      "name": "checkTimestamps",
      "outputs": [
        {
          "internalType": "bool",
          "name": "",
          "type": "bool"
        }
      ],
      "stateMutability": "pure",
      "type": "function"
    },
    {
      "inputs": [
        {
          "internalType": "uint256",
          "name": "tokenId",
          "type": "uint256"
        },
        {
          "internalType": "uint256",
          "name": "startTime",
          "type": "uint256"
        },
        {
          "internalType": "uint256",
          "name": "endTime",
          "type": "uint256"
        },
        {
          "internalType": "uint256",
          "name": "basePrice",
          "type": "uint256"
        },
        {
          "internalType": "uint256",
          "name": "_minimumBidIncrement",
          "type": "uint256"
        }
      ],
      "name": "createAuction",
      "outputs": [],
      "stateMutability": "nonpayable",
      "type": "function"
    },
    {
      "inputs": [
        {
          "internalType": "uint256",
          "name": "",
          "type": "uint256"
        }
      ],
      "name": "currentAuctions",
      "outputs": [
        {
          "internalType": "uint256",
          "name": "tokenId",
          "type": "uint256"
        },
        {
          "internalType": "uint256",
          "name": "startTime",
          "type": "uint256"
        },
        {
          "internalType": "uint256",
          "name": "endTime",
          "type": "uint256"
        },
        {
          "internalType": "uint256",
          "name": "basePrice",
          "type": "uint256"
        },
        {
          "internalType": "uint256",
          "name": "highestBid",
          "type": "uint256"
        },
        {
          "internalType": "address",
          "name": "highestBidder",
          "type": "address"
        },
        {
          "internalType": "address",
          "name": "previousBidder",
          "type": "address"
        },
        {
          "internalType": "uint256",
          "name": "minimumBidIncrement",
          "type": "uint256"
        },
        {
          "internalType": "enum NFTAuction.status",
          "name": "status",
          "type": "uint8"
        }
      ],
      "stateMutability": "view",
      "type": "function"
    },
    {
      "inputs": [
        {
          "internalType": "uint256",
          "name": "tokenId",
          "type": "uint256"
        }
      ],
      "name": "endAuction",
      "outputs": [],
      "stateMutability": "nonpayable",
      "type": "function"
    },
    {
      "inputs": [
        {
          "internalType": "uint256",
          "name": "tokenId",
          "type": "uint256"
        }
      ],
      "name": "getApproved",
      "outputs": [
        {
          "internalType": "address",
          "name": "",
          "type": "address"
        }
      ],
      "stateMutability": "view",
      "type": "function"
    },
    {
      "inputs": [
        {
          "internalType": "uint256",
          "name": "tokenId",
          "type": "uint256"
        }
      ],
      "name": "getAuctionForTokenId",
      "outputs": [
        {
          "components": [
            {
              "internalType": "uint256",
              "name": "tokenId",
              "type": "uint256"
            },
            {
              "internalType": "uint256",
              "name": "startTime",
              "type": "uint256"
            },
            {
              "internalType": "uint256",
              "name": "endTime",
              "type": "uint256"
            },
            {
              "internalType": "uint256",
              "name": "basePrice",
              "type": "uint256"
            },
            {
              "internalType": "uint256",
              "name": "highestBid",
              "type": "uint256"
            },
            {
              "internalType": "address",
              "name": "highestBidder",
              "type": "address"
            },
            {
              "internalType": "address",
              "name": "previousBidder",
              "type": "address"
            },
            {
              "internalType": "string",
              "name": "tokenURI",
              "type": "string"
            },
            {
              "internalType": "enum NFTAuction.status",
              "name": "status",
              "type": "uint8"
            },
            {
              "components": [
                {
                  "internalType": "address",
                  "name": "bidder",
                  "type": "address"
                },
                {
                  "internalType": "uint256",
                  "name": "amount",
                  "type": "uint256"
                }
              ],
              "internalType": "struct NFTAuction.Bid[]",
              "name": "bids",
              "type": "tuple[]"
            }
          ],
          "internalType": "struct NFTAuction.AuctionPayload",
          "name": "",
          "type": "tuple"
        }
      ],
      "stateMutability": "view",
      "type": "function"
    },
    {
      "inputs": [
        {
          "internalType": "uint256",
          "name": "tokenId",
          "type": "uint256"
        }
      ],
      "name": "getBids",
      "outputs": [
        {
          "components": [
            {
              "internalType": "address",
              "name": "bidder",
              "type": "address"
            },
            {
              "internalType": "uint256",
              "name": "amount",
              "type": "uint256"
            }
          ],
          "internalType": "struct NFTAuction.Bid[]",
          "name": "",
          "type": "tuple[]"
        }
      ],
      "stateMutability": "view",
      "type": "function"
    },
    {
      "inputs": [],
      "name": "getEndedAuctions",
      "outputs": [
        {
          "components": [
            {
              "internalType": "uint256",
              "name": "tokenId",
              "type": "uint256"
            },
            {
              "internalType": "uint256",
              "name": "startTime",
              "type": "uint256"
            },
            {
              "internalType": "uint256",
              "name": "endTime",
              "type": "uint256"
            },
            {
              "internalType": "uint256",
              "name": "basePrice",
              "type": "uint256"
            },
            {
              "internalType": "uint256",
              "name": "highestBid",
              "type": "uint256"
            },
            {
              "internalType": "address",
              "name": "highestBidder",
              "type": "address"
            },
            {
              "internalType": "address",
              "name": "previousBidder",
              "type": "address"
            },
            {
              "internalType": "string",
              "name": "tokenURI",
              "type": "string"
            },
            {
              "internalType": "enum NFTAuction.status",
              "name": "status",
              "type": "uint8"
            },
            {
              "components": [
                {
                  "internalType": "address",
                  "name": "bidder",
                  "type": "address"
                },
                {
                  "internalType": "uint256",
                  "name": "amount",
                  "type": "uint256"
                }
              ],
              "internalType": "struct NFTAuction.Bid[]",
              "name": "bids",
              "type": "tuple[]"
            }
          ],
          "internalType": "struct NFTAuction.AuctionPayload[]",
          "name": "",
          "type": "tuple[]"
        }
      ],
      "stateMutability": "view",
      "type": "function"
    },
    {
      "inputs": [],
      "name": "getLiveAuctions",
      "outputs": [
        {
          "components": [
            {
              "internalType": "uint256",
              "name": "tokenId",
              "type": "uint256"
            },
            {
              "internalType": "uint256",
              "name": "startTime",
              "type": "uint256"
            },
            {
              "internalType": "uint256",
              "name": "endTime",
              "type": "uint256"
            },
            {
              "internalType": "uint256",
              "name": "basePrice",
              "type": "uint256"
            },
            {
              "internalType": "uint256",
              "name": "highestBid",
              "type": "uint256"
            },
            {
              "internalType": "address",
              "name": "highestBidder",
              "type": "address"
            },
            {
              "internalType": "address",
              "name": "previousBidder",
              "type": "address"
            },
            {
              "internalType": "string",
              "name": "tokenURI",
              "type": "string"
            },
            {
              "internalType": "enum NFTAuction.status",
              "name": "status",
              "type": "uint8"
            },
            {
              "components": [
                {
                  "internalType": "address",
                  "name": "bidder",
                  "type": "address"
                },
                {
                  "internalType": "uint256",
                  "name": "amount",
                  "type": "uint256"
                }
              ],
              "internalType": "struct NFTAuction.Bid[]",
              "name": "bids",
              "type": "tuple[]"
            }
          ],
          "internalType": "struct NFTAuction.AuctionPayload[]",
          "name": "",
          "type": "tuple[]"
        }
      ],
      "stateMutability": "view",
      "type": "function"
    },
    {
      "inputs": [],
      "name": "getUpcomingAuctions",
      "outputs": [
        {
          "components": [
            {
              "internalType": "uint256",
              "name": "tokenId",
              "type": "uint256"
            },
            {
              "internalType": "uint256",
              "name": "startTime",
              "type": "uint256"
            },
            {
              "internalType": "uint256",
              "name": "endTime",
              "type": "uint256"
            },
            {
              "internalType": "uint256",
              "name": "basePrice",
              "type": "uint256"
            },
            {
              "internalType": "uint256",
              "name": "highestBid",
              "type": "uint256"
            },
            {
              "internalType": "address",
              "name": "highestBidder",
              "type": "address"
            },
            {
              "internalType": "address",
              "name": "previousBidder",
              "type": "address"
            },
            {
              "internalType": "string",
              "name": "tokenURI",
              "type": "string"
            },
            {
              "internalType": "enum NFTAuction.status",
              "name": "status",
              "type": "uint8"
            },
            {
              "components": [
                {
                  "internalType": "address",
                  "name": "bidder",
                  "type": "address"
                },
                {
                  "internalType": "uint256",
                  "name": "amount",
                  "type": "uint256"
                }
              ],
              "internalType": "struct NFTAuction.Bid[]",
              "name": "bids",
              "type": "tuple[]"
            }
          ],
          "internalType": "struct NFTAuction.AuctionPayload[]",
          "name": "",
          "type": "tuple[]"
        }
      ],
      "stateMutability": "view",
      "type": "function"
    },
    {
      "inputs": [
        {
          "internalType": "address",
          "name": "owner",
          "type": "address"
        },
        {
          "internalType": "address",
          "name": "operator",
          "type": "address"
        }
      ],
      "name": "isApprovedForAll",
      "outputs": [
        {
          "internalType": "bool",
          "name": "",
          "type": "bool"
        }
      ],
      "stateMutability": "view",
      "type": "function"
    },
    {
      "inputs": [],
      "name": "name",
      "outputs": [
        {
          "internalType": "string",
          "name": "",
          "type": "string"
        }
      ],
      "stateMutability": "view",
      "type": "function"
    },
    {
      "inputs": [],
      "name": "nextTokenId",
      "outputs": [
        {
          "internalType": "uint256",
          "name": "",
          "type": "uint256"
        }
      ],
      "stateMutability": "view",
      "type": "function"
    },
    {
      "inputs": [
        {
          "internalType": "address",
          "name": "operator",
          "type": "address"
        },
        {
          "internalType": "address",
          "name": "from",
          "type": "address"
        },
        {
          "internalType": "uint256",
          "name": "tokenId",
          "type": "uint256"
        },
        {
          "internalType": "bytes",
          "name": "data",
          "type": "bytes"
        }
      ],
      "name": "onERC721Received",
      "outputs": [
        {
          "internalType": "bytes4",
          "name": "",
          "type": "bytes4"
        }
      ],
      "stateMutability": "nonpayable",
      "type": "function"
    },
    {
      "inputs": [],
      "name": "owner",
      "outputs": [
        {
          "internalType": "address",
          "name": "",
          "type": "address"
        }
      ],
      "stateMutability": "view",
      "type": "function"
    },
    {
      "inputs": [
        {
          "internalType": "string[]",
          "name": "uri",
          "type": "string[]"
        }
      ],
      "name": "ownerMint",
      "outputs": [],
      "stateMutability": "nonpayable",
      "type": "function"
    },
    {
      "inputs": [
        {
          "internalType": "uint256",
          "name": "tokenId",
          "type": "uint256"
        }
      ],
      "name": "ownerOf",
      "outputs": [
        {
          "internalType": "address",
          "name": "",
          "type": "address"
        }
      ],
      "stateMutability": "view",
      "type": "function"
    },
    {
      "inputs": [],
      "name": "readyToMint",
      "outputs": [
        {
          "internalType": "bool",
          "name": "",
          "type": "bool"
        }
      ],
      "stateMutability": "view",
      "type": "function"
    },
    {
      "inputs": [],
      "name": "renounceOwnership",
      "outputs": [],
      "stateMutability": "nonpayable",
      "type": "function"
    },
    {
      "inputs": [
        {
          "internalType": "address",
          "name": "from",
          "type": "address"
        },
        {
          "internalType": "address",
          "name": "to",
          "type": "address"
        },
        {
          "internalType": "uint256",
          "name": "tokenId",
          "type": "uint256"
        }
      ],
      "name": "safeTransferFrom",
      "outputs": [],
      "stateMutability": "payable",
      "type": "function"
    },
    {
      "inputs": [
        {
          "internalType": "address",
          "name": "from",
          "type": "address"
        },
        {
          "internalType": "address",
          "name": "to",
          "type": "address"
        },
        {
          "internalType": "uint256",
          "name": "tokenId",
          "type": "uint256"
        },
        {
          "internalType": "bytes",
          "name": "_data",
          "type": "bytes"
        }
      ],
      "name": "safeTransferFrom",
      "outputs": [],
      "stateMutability": "payable",
      "type": "function"
    },
    {
      "inputs": [
        {
          "internalType": "address",
          "name": "operator",
          "type": "address"
        },
        {
          "internalType": "bool",
          "name": "approved",
          "type": "bool"
        }
      ],
      "name": "setApprovalForAll",
      "outputs": [],
      "stateMutability": "nonpayable",
      "type": "function"
    },
    {
      "inputs": [
        {
          "internalType": "uint256",
          "name": "_minimumBidIncrement",
          "type": "uint256"
        },
        {
          "internalType": "uint256",
          "name": "tokenId",
          "type": "uint256"
        }
      ],
      "name": "setMinimumBidIncrement",
      "outputs": [],
      "stateMutability": "nonpayable",
      "type": "function"
    },
    {
      "inputs": [
        {
          "internalType": "bytes4",
          "name": "interfaceId",
          "type": "bytes4"
        }
      ],
      "name": "supportsInterface",
      "outputs": [
        {
          "internalType": "bool",
          "name": "",
          "type": "bool"
        }
      ],
      "stateMutability": "view",
      "type": "function"
    },
    {
      "inputs": [],
      "name": "symbol",
      "outputs": [
        {
          "internalType": "string",
          "name": "",
          "type": "string"
        }
      ],
      "stateMutability": "view",
      "type": "function"
    },
    {
      "inputs": [
        {
          "internalType": "uint256[]",
          "name": "tokenIds",
          "type": "uint256[]"
        }
      ],
      "name": "tokenURI",
      "outputs": [
        {
          "internalType": "string[]",
          "name": "",
          "type": "string[]"
        }
      ],
      "stateMutability": "view",
      "type": "function"
    },
    {
      "inputs": [
        {
          "internalType": "uint256",
          "name": "tokenId",
          "type": "uint256"
        }
      ],
      "name": "tokenURI",
      "outputs": [
        {
          "internalType": "string",
          "name": "",
          "type": "string"
        }
      ],
      "stateMutability": "view",
      "type": "function"
    },
    {
      "inputs": [
        {
          "internalType": "uint256",
          "name": "",
          "type": "uint256"
        }
      ],
      "name": "tokenURIs",
      "outputs": [
        {
          "internalType": "string",
          "name": "",
          "type": "string"
        }
      ],
      "stateMutability": "view",
      "type": "function"
    },
    {
      "inputs": [],
      "name": "totalSupply",
      "outputs": [
        {
          "internalType": "uint256",
          "name": "result",
          "type": "uint256"
        }
      ],
      "stateMutability": "view",
      "type": "function"
    },
    {
      "inputs": [
        {
          "internalType": "address",
          "name": "from",
          "type": "address"
        },
        {
          "internalType": "address",
          "name": "to",
          "type": "address"
        },
        {
          "internalType": "uint256",
          "name": "tokenId",
          "type": "uint256"
        }
      ],
      "name": "transferFrom",
      "outputs": [],
      "stateMutability": "payable",
      "type": "function"
    },
    {
      "inputs": [
        {
          "internalType": "address",
          "name": "newOwner",
          "type": "address"
        }
      ],
      "name": "transferOwnership",
      "outputs": [],
      "stateMutability": "nonpayable",
      "type": "function"
    },
    {
      "inputs": [],
      "name": "withdraw",
      "outputs": [],
      "stateMutability": "nonpayable",
      "type": "function"
    }
  ],
  "bytecode": "0x6001600b5560c06040526005608090815264173539b7b760d91b60a052600d906200002b9082620001e0565b50600f805460ff191660011790553480156200004657600080fd5b5060405162003dbf38038062003dbf83398101604081905262000069916200035b565b33828260026200007a8382620001e0565b506003620000898282620001e0565b50600160005550506001600160a01b038116620000c057604051631e4fbdf760e01b81526000600482015260240160405180910390fd5b620000cb81620000e9565b506001600a55600c620000df8482620001e0565b50505050620003ec565b600980546001600160a01b038381166001600160a01b0319831681179093556040519116919082907f8be0079c531659141344cd1fd0a4f28419497f9722a3daafe3b4186f6b6457e090600090a35050565b634e487b7160e01b600052604160045260246000fd5b600181811c908216806200016657607f821691505b6020821081036200018757634e487b7160e01b600052602260045260246000fd5b50919050565b601f821115620001db57600081815260208120601f850160051c81016020861015620001b65750805b601f850160051c820191505b81811015620001d757828155600101620001c2565b5050505b505050565b81516001600160401b03811115620001fc57620001fc6200013b565b62000214816200020d845462000151565b846200018d565b602080601f8311600181146200024c5760008415620002335750858301515b600019600386901b1c1916600185901b178555620001d7565b600085815260208120601f198616915b828110156200027d578886015182559484019460019091019084016200025c565b50858210156200029c5787850151600019600388901b60f8161c191681555b5050505050600190811b01905550565b600082601f830112620002be57600080fd5b81516001600160401b0380821115620002db57620002db6200013b565b604051601f8301601f19908116603f011681019082821181831017156200030657620003066200013b565b816040528381526020925086838588010111156200032357600080fd5b600091505b8382101562000347578582018301518183018401529082019062000328565b600093810190920192909252949350505050565b6000806000606084860312156200037157600080fd5b83516001600160401b03808211156200038957600080fd5b6200039787838801620002ac565b94506020860151915080821115620003ae57600080fd5b620003bc87838801620002ac565b93506040860151915080821115620003d357600080fd5b50620003e286828701620002ac565b9150509250925092565b6139c380620003fc6000396000f3fe60806040526004361061023b5760003560e01c806370a082311161012e578063b9a2de3a116100ab578063ddf9ce241161006f578063ddf9ce2414610744578063e985e9c51461075e578063f10a69ec146107a7578063f2fde38b146107bc578063f804eb76146107dc57600080fd5b8063b9a2de3a146106bb578063c6682862146106db578063c87b56dd146106f0578063cb3536b214610710578063db0bd5c91461072f57600080fd5b806394fccfb2116100f257806394fccfb21461062657806395d89b4114610646578063a22cb4651461065b578063b53fb5081461067b578063b88d4fde146106a857600080fd5b806370a082311461059d578063715018a6146105bd57806375794a3c146105d25780638a157df3146105e85780638da5cb5b1461060857600080fd5b8063350eb203116101bc5780636352211e116101805780636352211e1461050657806364b560d714610526578063652ed26e146105485780636c0360eb146105685780636c8b703f1461057d57600080fd5b8063350eb203146103cc5780633ccfd60b1461045657806342842e0e1461046b578063571a26a01461047e578063598647f8146104f357600080fd5b8063131d9a2711610203578063131d9a2714610311578063150b7a021461033e57806318160ddd1461037757806323b872dd146103a357806332cb6b0c146103b657600080fd5b806301ffc9a71461024057806306fdde0314610275578063081812fc14610297578063095ea7b3146102cf57806310d4fe08146102e4575b600080fd5b34801561024c57600080fd5b5061026061025b366004612e50565b6107fc565b60405190151581526020015b60405180910390f35b34801561028157600080fd5b5061028a61084e565b60405161026c9190612ebd565b3480156102a357600080fd5b506102b76102b2366004612ed0565b6108e0565b6040516001600160a01b03909116815260200161026c565b6102e26102dd366004612f00565b61091b565b005b3480156102f057600080fd5b506103046102ff366004612f93565b61092b565b60405161026c9190613028565b34801561031d57600080fd5b5061033161032c366004612ed0565b610ac8565b60405161026c91906130d9565b34801561034a57600080fd5b5061035e6103593660046130ec565b610d9f565b6040516001600160e01b0319909116815260200161026c565b34801561038357600080fd5b50610395600154600054036000190190565b60405190815260200161026c565b6102e26103b1366004613186565b610dff565b3480156103c257600080fd5b5061039561271081565b3480156103d857600080fd5b506104416103e7366004612ed0565b601260205260009081526040902080546001820154600283015460038401546004850154600586015460068701546008880154600990980154969795969495939492936001600160a01b0392831693929091169160ff1689565b60405161026c999897969594939291906131fa565b34801561046257600080fd5b506102e2610f50565b6102e2610479366004613186565b61109d565b34801561048a57600080fd5b50610441610499366004612ed0565b601060205260009081526040902080546001820154600283015460038401546004850154600586015460068701546008880154600990980154969795969495939492936001600160a01b0392831693929091169160ff1689565b6102e2610501366004613258565b6110bd565b34801561051257600080fd5b506102b7610521366004612ed0565b611409565b34801561053257600080fd5b5061053b611414565b60405161026c9190613332565b34801561055457600080fd5b506102e26105633660046133de565b611675565b34801561057457600080fd5b5061028a6116ff565b34801561058957600080fd5b5061028a610598366004612ed0565b61178d565b3480156105a957600080fd5b506103956105b83660046134a3565b6117a6565b3480156105c957600080fd5b506102e26117eb565b3480156105de57600080fd5b50610395600b5481565b3480156105f457600080fd5b506102e26106033660046134be565b6117fd565b34801561061457600080fd5b506009546001600160a01b03166102b7565b34801561063257600080fd5b506103956106413660046134f9565b611b5e565b34801561065257600080fd5b5061028a611b9c565b34801561066757600080fd5b506102e261067636600461351e565b611bab565b34801561068757600080fd5b5061069b610696366004612ed0565b611c17565b60405161026c919061355a565b6102e26106b636600461356d565b611def565b3480156106c757600080fd5b506102e26106d6366004612ed0565b611e30565b3480156106e757600080fd5b5061028a611fb0565b3480156106fc57600080fd5b5061028a61070b366004612ed0565b611fbd565b34801561071c57600080fd5b5061026061072b366004613258565b1190565b34801561073b57600080fd5b5061053b612038565b34801561075057600080fd5b50600f546102609060ff1681565b34801561076a57600080fd5b506102606107793660046135e8565b6001600160a01b03918216600090815260076020908152604080832093909416825291909152205460ff1690565b3480156107b357600080fd5b5061053b6122c8565b3480156107c857600080fd5b506102e26107d73660046134a3565b6125aa565b3480156107e857600080fd5b506102e26107f7366004613258565b6125e8565b60006301ffc9a760e01b6001600160e01b03198316148061082d57506380ac58cd60e01b6001600160e01b03198316145b806108485750635b5e139f60e01b6001600160e01b03198316145b92915050565b60606002805461085d9061361b565b80601f01602080910402602001604051908101604052809291908181526020018280546108899061361b565b80156108d65780601f106108ab576101008083540402835291602001916108d6565b820191906000526020600020905b8154815290600101906020018083116108b957829003601f168201915b5050505050905090565b60006108eb82612669565b6108ff576108ff6333d1c03960e21b6126b4565b506000908152600660205260409020546001600160a01b031690565b610927828260016126be565b5050565b6060600082516001600160401b0381111561094857610948612f2a565b60405190808252806020026020018201604052801561097b57816020015b60608152602001906001900390816109665790505b50905060005b8351811015610ac1576109ac84828151811061099f5761099f613655565b6020026020010151612669565b610a155760405162461bcd60e51b815260206004820152602f60248201527f4552433732314d657461646174613a2055524920717565727920666f72206e6f60448201526e3732bc34b9ba32b73a103a37b5b2b760891b60648201526084015b60405180910390fd5b6000610a1f612761565b90506000815111610a3f5760405180602001604052806000815250610a90565b80600e6000878581518110610a5657610a56613655565b60200260200101518152602001908152602001600020600d604051602001610a80939291906136de565b6040516020818303038152906040525b838381518110610aa257610aa2613655565b6020026020010181905250508080610ab99061371b565b915050610981565b5092915050565b6060600b54821115610aec5760405162461bcd60e51b8152600401610a0c90613734565b6000828152601060209081526040808320600781018054835181860281018601909452808452919493909190830182828015610b5157602002820191906000526020600020905b81546001600160a01b03168152600190910190602001808311610b33575b505050505090506000805b8251811015610bd757601160008781526020019081526020016000206000848381518110610b8c57610b8c613655565b60200260200101516001600160a01b03166001600160a01b031681526020019081526020016000208054905082610bc3919061376b565b915080610bcf8161371b565b915050610b5c565b506000816001600160401b03811115610bf257610bf2612f2a565b604051908082528060200260200182016040528015610c3757816020015b6040805180820190915260008082526020820152815260200190600190039081610c105790505b5090506000805b8451811015610d9357600088815260116020526040812086518290889085908110610c6b57610c6b613655565b60200260200101516001600160a01b03166001600160a01b03168152602001908152602001600020805480602002602001604051908101604052809291908181526020018280548015610cdd57602002820191906000526020600020905b815481526020019060010190808311610cc9575b5050505050905060005b8151811015610d7e576040518060400160405280888581518110610d0d57610d0d613655565b60200260200101516001600160a01b03168152602001838381518110610d3557610d35613655565b6020026020010151815250858581518110610d5257610d52613655565b60200260200101819052508380610d689061371b565b9450508080610d769061371b565b915050610ce7565b50508080610d8b9061371b565b915050610c3e565b50909695505050505050565b604080516001600160a01b038088168252861660208201529081018490526000907f941a9d9a9af7f97737c018d13918859e12f44e16c4b4c6ac922dacf021cfbf149060600160405180910390a150630a85bd0160e11b95945050505050565b6000610e0a82612770565b90506001600160a01b038085169082168114610e2f57610e2f62a1148160e81b6126b4565b600083815260066020526040902080543380821490841417610e6957610e558733610779565b610e6957610e69632ce44b5f60e11b6126b4565b8015610e7457600082555b6001600160a01b038781166000908152600560205260408082208054600019019055918816808252919020805460010190554260a01b17600160e11b17600086815260046020526040902055600160e11b8416610eff5760018501600081815260046020526040902054610efd576000548114610efd5760008181526004602052604090208590555b505b6001600160a01b0386168581857fddf252ad1be2c89b69c2b068fc378daa952ba7f163c4a11628f55a4df523b3ef600080a480610f4657610f46633a954ecd60e21b6126b4565b5050505050505050565b610f58612808565b610f60612835565b600f5460ff16610fc25760405162461bcd60e51b815260206004820152602760248201527f7361746973667920616c6c2061756374696f6e73206265666f7265207769746860448201526664726177696e6760c81b6064820152608401610a0c565b47806110055760405162461bcd60e51b81526020600482015260126024820152714e6f2045544820746f20776974686472617760701b6044820152606401610a0c565b604051600090339083908381818185875af1925050503d8060008114611047576040519150601f19603f3d011682016040523d82523d6000602084013e61104c565b606091505b505090508061108f5760405162461bcd60e51b815260206004820152600f60248201526e151c985b9cd9995c8819985a5b1959608a1b6044820152606401610a0c565b505061109b6001600a55565b565b6110b883838360405180602001604052806000815250611def565b505050565b6110c5612835565b600b548211156110e75760405162461bcd60e51b8152600401610a0c9061377e565b60008281526010602052604090206001015442116111405760405162461bcd60e51b8152602060048201526016602482015275105d58dd1a5bdb881a5cc81b9bdd081cdd185c9d195960521b6044820152606401610a0c565b60008281526010602052604081206009015460ff166002811115611166576111666131c2565b146111835760405162461bcd60e51b8152600401610a0c906137aa565b60008281526010602052604081206004015490036112005780341480156111ba575060008281526010602052604090206003015481115b6111fb5760405162461bcd60e51b81526020600482015260126024820152711a5b9d985b1a5908195d1a195c881cd95b9d60721b6044820152606401610a0c565b611272565b803414801561123157506000828152601060205260409020600881015460049091015461122d919061376b565b8110155b6112725760405162461bcd60e51b81526020600482015260126024820152711a5b9d985b1a5908195d1a195c881cd95b9d60721b6044820152606401610a0c565b600082815260126020526040808220600681015460049091015491516001600160a01b0390911691908381818185875af1925050503d80600081146112d3576040519150601f19603f3d011682016040523d82523d6000602084013e6112d8565b606091505b50509050806113195760405162461bcd60e51b815260206004820152600d60248201526c1499599d5b990819985a5b1959609a1b6044820152606401610a0c565b60008381526011602090815260408083203380855281845282852080546001818101835582885286882090910189905589875260108652938620600481018990556005810180546001600160a01b0319908116851790915560069091018054909116831790559452909152905490036113be5760008381526010602090815260408220600701805460018101825590835291200180546001600160a01b031916331790555b604080518481523360208201529081018390527f0e54eff26401bf69b81b26f60bd85ef47f5d85275c1d268d84f68d6897431c479060600160405180910390a1506109276001600a55565b600061084882612770565b6060600060015b600b54811161145d5760008181526010602052604090206001015442101561144b57816114478161371b565b9250505b806114558161371b565b91505061141b565b506000816001600160401b0381111561147857611478612f2a565b6040519080825280602002602001820160405280156114b157816020015b61149e612d4a565b8152602001906001900390816114965790505b509050600060015b600b54811161166c5760008181526010602052604090206001015442101561165a5760408051610140810182526000838152601060209081528382208054808552600182015483860152600282015485870152600382015460608601526004820154608086015260058201546001600160a01b0390811660a087015260069092015490911660c08501528252600e905291909120805460e08301919061155e9061361b565b80601f016020809104026020016040519081016040528092919081815260200182805461158a9061361b565b80156115d75780601f106115ac576101008083540402835291602001916115d7565b820191906000526020600020905b8154815290600101906020018083116115ba57829003601f168201915b505050918352505060008381526010602090815260409091206009015491019060ff16600281111561160b5761160b6131c2565b815260008381526010602090815260409091205491019061162b90610ac8565b81525083838151811061164057611640613655565b602002602001018190525081806116569061371b565b9250505b806116648161371b565b9150506114b9565b50909392505050565b61167d612808565b600f5460ff166116de5760405162461bcd60e51b815260206004820152602660248201527f4e6f7420726561647920746f206d696e742c61756374696f6e7320696e2070726044820152656f677265737360d01b6064820152608401610a0c565b6116e930600a61285f565b6116f281612879565b50600f805460ff19169055565b600c805461170c9061361b565b80601f01602080910402602001604051908101604052809291908181526020018280546117389061361b565b80156117855780601f1061175a57610100808354040283529160200191611785565b820191906000526020600020905b81548152906001019060200180831161176857829003601f168201915b505050505081565b600e602052600090815260409020805461170c9061361b565b60006001600160a01b0382166117c6576117c66323d3ad8160e21b6126b4565b506001600160a01b03166000908152600560205260409020546001600160401b031690565b6117f3612808565b61109b60006128de565b611805612808565b600b548511156118275760405162461bcd60e51b8152600401610a0c9061377e565b8383116118845760405162461bcd60e51b815260206004820152602560248201527f53746172742074696d65206d757374206265206c657373207468616e20656e646044820152642074696d6560d81b6064820152608401610a0c565b4284116118d35760405162461bcd60e51b815260206004820181905260248201527f53746172742074696d65206d75737420626520696e20746865206675747572656044820152606401610a0c565b600b5485111561194b5760405162461bcd60e51b815260206004820152603860248201527f546f6b656e204944206d757374206265206c657373207468616e206f7220657160448201527f75616c20746f20746865206e65787420746f6b656e20494400000000000000006064820152608401610a0c565b600082116119a55760405162461bcd60e51b815260206004820152602160248201527f42617365207072696365206d7573742062652067726561746572207468616e206044820152600360fc1b6064820152608401610a0c565b60006040518061014001604052808781526020018681526020018581526020018481526020016000815260200160006001600160a01b0316815260200160006001600160a01b0316815260200160006001600160401b03811115611a0b57611a0b612f2a565b604051908082528060200260200182016040528015611a34578160200160208202803683370190505b508152602081018490526040016000905260008781526010602090815260409182902083518155818401516001820155918301516002830155606083015160038301556080830151600483015560a08301516005830180546001600160a01b039283166001600160a01b03199182161790915560c085015160068501805491909316911617905560e083015180519394508493611ad79260078501920190612dc0565b50610100820151600882015561012082015160098201805460ff19166001836002811115611b0757611b076131c2565b0217905550506040805188815260208101889052908101869052606081018590527fa9c8dfcda5664a5a124c713e386da27de87432d5b668e79458501eb296389ba7915060800160405180910390a1505050505050565b60116020528260005260406000206020528160005260406000208181548110611b8657600080fd5b9060005260206000200160009250925050505481565b60606003805461085d9061361b565b3360008181526007602090815260408083206001600160a01b03871680855290835292819020805460ff191686151590811790915590519081529192917f17307eab39ab6107e8899845ad3d59bd9653f200f220920489ca2b5937696c31910160405180910390a35050565b611c1f612d4a565b600b54821115611c415760405162461bcd60e51b8152600401610a0c90613734565b6000828152601060205260409020548214611c975760405162461bcd60e51b8152602060048201526016602482015275185d58dd1a5bdb881b9bdd081b1a5cdd1959081e595d60521b6044820152606401610a0c565b60408051610140810182526000848152601060209081528382208054808552600182015483860152600282015485870152600382015460608601526004820154608086015260058201546001600160a01b0390811660a087015260069092015490911660c08501528252600e9052918220805460e083019190611d199061361b565b80601f0160208091040260200160405190810160405280929190818152602001828054611d459061361b565b8015611d925780601f10611d6757610100808354040283529160200191611d92565b820191906000526020600020905b815481529060010190602001808311611d7557829003601f168201915b505050918352505060008581526010602090815260409091206009015491019060ff166002811115611dc657611dc66131c2565b8152600085815260106020908152604090912054910190611de690610ac8565b90529392505050565b611dfa848484610dff565b6001600160a01b0383163b15611e2a57611e1684848484612930565b611e2a57611e2a6368d2bf6b60e11b6126b4565b50505050565b611e38612808565b600b54811115611e5a5760405162461bcd60e51b8152600401610a0c9061377e565b60008181526010602052604081206009015460ff166002811115611e8057611e806131c2565b14611e9d5760405162461bcd60e51b8152600401610a0c906137aa565b6000818152601060205260409020600201544211611efd5760405162461bcd60e51b815260206004820152601b60248201527f41756374696f6e2074696d65206973206e6f74207570207965742000000000006044820152606401610a0c565b6000818152601060205260409020600901805460ff19166001179055611f21612a0f565b15611f7a57611f2e612aed565b611f7a5760405162461bcd60e51b815260206004820152601760248201527f4661696c656420746f207472616e73666572204e4654730000000000000000006044820152606401610a0c565b6040518181527f45806e512b1f4f10e33e8b3cb64d1d11d998d8c554a95e0841fc1c701278bd5d9060200160405180910390a150565b600d805461170c9061361b565b6060611fc882612669565b611fdc57611fdc630a14c4b560e41b6126b4565b6000611fe6612761565b905080516000036120065760405180602001604052806000815250612031565b8061201084612be9565b6040516020016120219291906137d7565b6040516020818303038152906040525b9392505050565b6060600060015b600b54811161209d5760008181526010602052604090206001015442118015612078575060008181526010602052604090206002015442105b1561208b57816120878161371b565b9250505b806120958161371b565b91505061203f565b506000816001600160401b038111156120b8576120b8612f2a565b6040519080825280602002602001820160405280156120f157816020015b6120de612d4a565b8152602001906001900390816120d65790505b509050600060015b600b54811161166c5760008181526010602052604090206001015442118015612132575060008181526010602052604090206002015442105b156122b65760408051610140810182526000838152601060209081528382208054808552600182015483860152600282015485870152600382015460608601526004820154608086015260058201546001600160a01b0390811660a087015260069092015490911660c08501528252600e905291909120805460e0830191906121ba9061361b565b80601f01602080910402602001604051908101604052809291908181526020018280546121e69061361b565b80156122335780601f1061220857610100808354040283529160200191612233565b820191906000526020600020905b81548152906001019060200180831161221657829003601f168201915b505050918352505060008381526010602090815260409091206009015491019060ff166002811115612267576122676131c2565b815260008381526010602090815260409091205491019061228790610ac8565b81525083838151811061229c5761229c613655565b602002602001018190525081806122b29061371b565b9250505b806122c08161371b565b9150506120f9565b6060600060015b600b54811161235657600160008281526010602052604090206009015460ff166002811115612300576123006131c2565b14806123315750600260008281526010602052604090206009015460ff16600281111561232f5761232f6131c2565b145b1561234457816123408161371b565b9250505b8061234e8161371b565b9150506122cf565b506000816001600160401b0381111561237157612371612f2a565b6040519080825280602002602001820160405280156123aa57816020015b612397612d4a565b81526020019060019003908161238f5790505b509050600060015b600b54811161166c57600160008281526010602052604090206009015460ff1660028111156123e3576123e36131c2565b14806124145750600260008281526010602052604090206009015460ff166002811115612412576124126131c2565b145b156125985760408051610140810182526000838152601060209081528382208054808552600182015483860152600282015485870152600382015460608601526004820154608086015260058201546001600160a01b0390811660a087015260069092015490911660c08501528252600e905291909120805460e08301919061249c9061361b565b80601f01602080910402602001604051908101604052809291908181526020018280546124c89061361b565b80156125155780601f106124ea57610100808354040283529160200191612515565b820191906000526020600020905b8154815290600101906020018083116124f857829003601f168201915b505050918352505060008381526010602090815260409091206009015491019060ff166002811115612549576125496131c2565b815260008381526010602090815260409091205491019061256990610ac8565b81525083838151811061257e5761257e613655565b602002602001018190525081806125949061371b565b9250505b806125a28161371b565b9150506123b2565b6125b2612808565b6001600160a01b0381166125dc57604051631e4fbdf760e01b815260006004820152602401610a0c565b6125e5816128de565b50565b6125f0612808565b600b548111156126125760405162461bcd60e51b8152600401610a0c90613734565b60008181526010602052604081206009015460ff166002811115612638576126386131c2565b146126555760405162461bcd60e51b8152600401610a0c906137aa565b600090815260106020526040902060080155565b6000816001116126af576000548210156126af5760005b50600082815260046020526040902054806126a55761269e83613806565b9250612680565b600160e01b161590505b919050565b8060005260046000fd5b60006126c983611409565b90508180156126e15750336001600160a01b03821614155b15612704576126f08133610779565b612704576127046367d9dca160e11b6126b4565b60008381526006602052604080822080546001600160a01b0319166001600160a01b0388811691821790925591518693918516917f8c5be1e5ebec7d5bd14f71427d1e84f3dd0314c0f7b2291e5b200ac8c7c3b92591a450505050565b6060600c805461085d9061361b565b6000816001116127f85750600081815260046020526040902054806127e85760005482106127a8576127a8636f96cda160e11b6126b4565b5b506000190160008181526004602052604090205480156127a957600160e01b81166127d357919050565b6127e3636f96cda160e11b6126b4565b6127a9565b600160e01b81166127f857919050565b6126af636f96cda160e11b6126b4565b6009546001600160a01b0316331461109b5760405163118cdaa760e01b8152336004820152602401610a0c565b6002600a540361285857604051633ee5aeb560e01b815260040160405180910390fd5b6002600a55565b610927828260405180602001604052806000815250612c2d565b60005b81518110156109275781818151811061289757612897613655565b6020026020010151600e6000600b54815260200190815260200160002090816128c0919061386b565b50600b80549060006128d18361371b565b909155505060010161287c565b600980546001600160a01b038381166001600160a01b0319831681179093556040519116919082907f8be0079c531659141344cd1fd0a4f28419497f9722a3daafe3b4186f6b6457e090600090a35050565b604051630a85bd0160e11b81526000906001600160a01b0385169063150b7a029061296590339089908890889060040161392a565b6020604051808303816000875af19250505080156129a0575060408051601f3d908101601f1916820190925261299d9181019061395d565b60015b6129f2573d8080156129ce576040519150601f19603f3d011682016040523d82523d6000602084013e6129d3565b606091505b5080516129ea576129ea6368d2bf6b60e11b6126b4565b805181602001fd5b6001600160e01b031916630a85bd0160e11b149050949350505050565b6000600a600b541115612a92576000600b8054612a2c919061397a565b90505b6001600b54612a3e919061397a565b811015612a8c57600160008281526010602052604090206009015460ff166002811115612a6d57612a6d6131c2565b14612a7a57600091505090565b80612a848161371b565b915050612a2f565b50612ae7565b60015b600b811015612ae557600160008281526010602052604090206009015460ff166002811115612ac657612ac66131c2565b14612ad357600091505090565b80612add8161371b565b915050612a95565b505b50600190565b6000612af7612808565b600a600b541115612b88576000600b8054612b12919061397a565b90505b6001600b54612b24919061397a565b811015612b8057600081815260106020526040902060050154612b529030906001600160a01b03168361109d565b6000818152601060205260409020600901805460ff1916600217905580612b788161371b565b915050612b15565b506001905090565b60015b600b811015612b8057600081815260106020526040902060050154612bbb9030906001600160a01b03168361109d565b6000818152601060205260409020600901805460ff1916600217905580612be18161371b565b915050612b8b565b606060a06040510180604052602081039150506000815280825b600183039250600a81066030018353600a900480612c035750819003601f19909101908152919050565b612c378383612c91565b6001600160a01b0383163b156110b8576000548281035b612c616000868380600101945086612930565b612c7557612c756368d2bf6b60e11b6126b4565b818110612c4e578160005414612c8a57600080fd5b5050505050565b60005481612ca957612ca963b562e8dd60e01b6126b4565b60008181526004602090815260408083206001600160a01b0387164260a01b6001881460e11b1781179091558084526005909252909120805468010000000000000001850201905580612d0557612d05622e076360e81b6126b4565b818301825b808360007fddf252ad1be2c89b69c2b068fc378daa952ba7f163c4a11628f55a4df523b3ef600080a4818160010191508103612d0a575060005550505050565b604051806101400160405280600081526020016000815260200160008152602001600081526020016000815260200160006001600160a01b0316815260200160006001600160a01b031681526020016060815260200160006002811115612db357612db36131c2565b8152602001606081525090565b828054828255906000526020600020908101928215612e15579160200282015b82811115612e1557825182546001600160a01b0319166001600160a01b03909116178255602090920191600190910190612de0565b50612e21929150612e25565b5090565b5b80821115612e215760008155600101612e26565b6001600160e01b0319811681146125e557600080fd5b600060208284031215612e6257600080fd5b813561203181612e3a565b60005b83811015612e88578181015183820152602001612e70565b50506000910152565b60008151808452612ea9816020860160208601612e6d565b601f01601f19169290920160200192915050565b6020815260006120316020830184612e91565b600060208284031215612ee257600080fd5b5035919050565b80356001600160a01b03811681146126af57600080fd5b60008060408385031215612f1357600080fd5b612f1c83612ee9565b946020939093013593505050565b634e487b7160e01b600052604160045260246000fd5b604051601f8201601f191681016001600160401b0381118282101715612f6857612f68612f2a565b604052919050565b60006001600160401b03821115612f8957612f89612f2a565b5060051b60200190565b60006020808385031215612fa657600080fd5b82356001600160401b03811115612fbc57600080fd5b8301601f81018513612fcd57600080fd5b8035612fe0612fdb82612f70565b612f40565b81815260059190911b82018301908381019087831115612fff57600080fd5b928401925b8284101561301d57833582529284019290840190613004565b979650505050505050565b6000602080830181845280855180835260408601915060408160051b870101925083870160005b8281101561307d57603f1988860301845261306b858351612e91565b9450928501929085019060010161304f565b5092979650505050505050565b600081518084526020808501945080840160005b838110156130ce57815180516001600160a01b03168852830151838801526040909601959082019060010161309e565b509495945050505050565b602081526000612031602083018461308a565b60008060008060006080868803121561310457600080fd5b61310d86612ee9565b945061311b60208701612ee9565b93506040860135925060608601356001600160401b038082111561313e57600080fd5b818801915088601f83011261315257600080fd5b81358181111561316157600080fd5b89602082850101111561317357600080fd5b9699959850939650602001949392505050565b60008060006060848603121561319b57600080fd5b6131a484612ee9565b92506131b260208501612ee9565b9150604084013590509250925092565b634e487b7160e01b600052602160045260246000fd5b600381106131f657634e487b7160e01b600052602160045260246000fd5b9052565b898152602081018990526040810188905260608101879052608081018690526001600160a01b0385811660a0830152841660c082015260e08101839052610120810161324a6101008301846131d8565b9a9950505050505050505050565b6000806040838503121561326b57600080fd5b50508035926020909101359150565b6000610140825184526020830151602085015260408301516040850152606083015160608501526080830151608085015260a08301516132c560a08601826001600160a01b03169052565b5060c08301516132e060c08601826001600160a01b03169052565b5060e08301518160e08601526132f882860182612e91565b9150506101008084015161330e828701826131d8565b50506101208084015185830382870152613328838261308a565b9695505050505050565b6000602080830181845280855180835260408601915060408160051b870101925083870160005b8281101561307d57603f1988860301845261337585835161327a565b94509285019290850190600101613359565b60006001600160401b038311156133a0576133a0612f2a565b6133b3601f8401601f1916602001612f40565b90508281528383830111156133c757600080fd5b828260208301376000602084830101529392505050565b600060208083850312156133f157600080fd5b82356001600160401b038082111561340857600080fd5b818501915085601f83011261341c57600080fd5b813561342a612fdb82612f70565b81815260059190911b8301840190848101908883111561344957600080fd5b8585015b83811015613496578035858111156134655760008081fd5b8601603f81018b136134775760008081fd5b6134888b8983013560408401613387565b84525091860191860161344d565b5098975050505050505050565b6000602082840312156134b557600080fd5b61203182612ee9565b600080600080600060a086880312156134d657600080fd5b505083359560208501359550604085013594606081013594506080013592509050565b60008060006060848603121561350e57600080fd5b833592506131b260208501612ee9565b6000806040838503121561353157600080fd5b61353a83612ee9565b91506020830135801515811461354f57600080fd5b809150509250929050565b602081526000612031602083018461327a565b6000806000806080858703121561358357600080fd5b61358c85612ee9565b935061359a60208601612ee9565b92506040850135915060608501356001600160401b038111156135bc57600080fd5b8501601f810187136135cd57600080fd5b6135dc87823560208401613387565b91505092959194509250565b600080604083850312156135fb57600080fd5b61360483612ee9565b915061361260208401612ee9565b90509250929050565b600181811c9082168061362f57607f821691505b60208210810361364f57634e487b7160e01b600052602260045260246000fd5b50919050565b634e487b7160e01b600052603260045260246000fd5b600081546136788161361b565b6001828116801561369057600181146136a5576136d4565b60ff19841687528215158302870194506136d4565b8560005260208060002060005b858110156136cb5781548a8201529084019082016136b2565b50505082870194505b5050505092915050565b600084516136f0818460208901612e6d565b6133286136ff8285018761366b565b8561366b565b634e487b7160e01b600052601160045260246000fd5b60006001820161372d5761372d613705565b5060010190565b60208082526017908201527f546f6b656e20494420646f6573206e6f74206578697374000000000000000000604082015260600190565b8082018082111561084857610848613705565b6020808252601290820152711b999d08191bd95cc81b9bdd08195e1a5cdd60721b604082015260600190565b60208082526013908201527241756374696f6e206973206e6f74206c69766560681b604082015260600190565b600083516137e9818460208801612e6d565b8351908301906137fd818360208801612e6d565b01949350505050565b60008161381557613815613705565b506000190190565b601f8211156110b857600081815260208120601f850160051c810160208610156138445750805b601f850160051c820191505b8181101561386357828155600101613850565b505050505050565b81516001600160401b0381111561388457613884612f2a565b61389881613892845461361b565b8461381d565b602080601f8311600181146138cd57600084156138b55750858301515b600019600386901b1c1916600185901b178555613863565b600085815260208120601f198616915b828110156138fc578886015182559484019460019091019084016138dd565b508582101561391a5787850151600019600388901b60f8161c191681555b5050505050600190811b01905550565b6001600160a01b038581168252841660208201526040810183905260806060820181905260009061332890830184612e91565b60006020828403121561396f57600080fd5b815161203181612e3a565b818103818111156108485761084861370556fea26469706673582212208eccaae8f94c72ac839123faef7b543d94effa717858c9086f44692ed599f02464736f6c63430008140033",
  "linkReferences": {},
  "deployedLinkReferences": {}
}