{
  "_format": "hh-sol-artifact-1",
  "contractName": "NFTAuctionV3",
  "sourceName": "contracts/NFTAuctionV3.sol",
  "abi": [
    {
      "inputs": [
        {
          "internalType": "string",
          "name": "_initBaseURI",
          "type": "string"
        },
        {
          "internalType": "string",
          "name": "tokenName",
          "type": "string"
        },
        {
          "internalType": "string",
          "name": "tokenSymbol",
          "type": "string"
        },
        {
          "internalType": "address",
          "name": "_dumpWallet",
          "type": "address"
        }
      ],
      "stateMutability": "nonpayable",
      "type": "constructor"
    },
    {
      "inputs": [],
      "name": "ApprovalCallerNotOwnerNorApproved",
      "type": "error"
    },
    {
      "inputs": [],
      "name": "ApprovalQueryForNonexistentToken",
      "type": "error"
    },
    {
      "inputs": [],
      "name": "BalanceQueryForZeroAddress",
      "type": "error"
    },
    {
      "inputs": [],
      "name": "MintERC2309QuantityExceedsLimit",
      "type": "error"
    },
    {
      "inputs": [],
      "name": "MintToZeroAddress",
      "type": "error"
    },
    {
      "inputs": [],
      "name": "MintZeroQuantity",
      "type": "error"
    },
    {
      "inputs": [],
      "name": "NotCompatibleWithSpotMints",
      "type": "error"
    },
    {
      "inputs": [
        {
          "internalType": "address",
          "name": "owner",
          "type": "address"
        }
      ],
      "name": "OwnableInvalidOwner",
      "type": "error"
    },
    {
      "inputs": [
        {
          "internalType": "address",
          "name": "account",
          "type": "address"
        }
      ],
      "name": "OwnableUnauthorizedAccount",
      "type": "error"
    },
    {
      "inputs": [],
      "name": "OwnerQueryForNonexistentToken",
      "type": "error"
    },
    {
      "inputs": [],
      "name": "OwnershipNotInitializedForExtraData",
      "type": "error"
    },
    {
      "inputs": [],
      "name": "ReentrancyGuardReentrantCall",
      "type": "error"
    },
    {
      "inputs": [],
      "name": "SequentialMintExceedsLimit",
      "type": "error"
    },
    {
      "inputs": [],
      "name": "SequentialUpToTooSmall",
      "type": "error"
    },
    {
      "inputs": [],
      "name": "SpotMintTokenIdTooSmall",
      "type": "error"
    },
    {
      "inputs": [],
      "name": "TokenAlreadyExists",
      "type": "error"
    },
    {
      "inputs": [],
      "name": "TokenIdsNotStrictlyAscending",
      "type": "error"
    },
    {
      "inputs": [],
      "name": "TransferCallerNotOwnerNorApproved",
      "type": "error"
    },
    {
      "inputs": [],
      "name": "TransferFromIncorrectOwner",
      "type": "error"
    },
    {
      "inputs": [],
      "name": "TransferToNonERC721ReceiverImplementer",
      "type": "error"
    },
    {
      "inputs": [],
      "name": "TransferToZeroAddress",
      "type": "error"
    },
    {
      "inputs": [],
      "name": "URIQueryForNonexistentToken",
      "type": "error"
    },
    {
      "anonymous": false,
      "inputs": [
        {
          "indexed": true,
          "internalType": "address",
          "name": "owner",
          "type": "address"
        },
        {
          "indexed": true,
          "internalType": "address",
          "name": "approved",
          "type": "address"
        },
        {
          "indexed": true,
          "internalType": "uint256",
          "name": "tokenId",
          "type": "uint256"
        }
      ],
      "name": "Approval",
      "type": "event"
    },
    {
      "anonymous": false,
      "inputs": [
        {
          "indexed": true,
          "internalType": "address",
          "name": "owner",
          "type": "address"
        },
        {
          "indexed": true,
          "internalType": "address",
          "name": "operator",
          "type": "address"
        },
        {
          "indexed": false,
          "internalType": "bool",
          "name": "approved",
          "type": "bool"
        }
      ],
      "name": "ApprovalForAll",
      "type": "event"
    },
    {
      "anonymous": false,
      "inputs": [
        {
          "indexed": false,
          "internalType": "uint256",
          "name": "tokenId",
          "type": "uint256"
        }
      ],
      "name": "AuctionCancelled",
      "type": "event"
    },
    {
      "anonymous": false,
      "inputs": [
        {
          "indexed": false,
          "internalType": "uint256",
          "name": "tokenId",
          "type": "uint256"
        },
        {
          "indexed": false,
          "internalType": "uint256",
          "name": "duration",
          "type": "uint256"
        },
        {
          "indexed": false,
          "internalType": "uint256",
          "name": "basePrice",
          "type": "uint256"
        }
      ],
      "name": "AuctionCreated",
      "type": "event"
    },
    {
      "anonymous": false,
      "inputs": [
        {
          "indexed": false,
          "internalType": "uint256",
          "name": "tokenId",
          "type": "uint256"
        }
      ],
      "name": "AuctionEnded",
      "type": "event"
    },
    {
      "anonymous": false,
      "inputs": [
        {
          "indexed": false,
          "internalType": "uint256",
          "name": "tokenId",
          "type": "uint256"
        },
        {
          "indexed": false,
          "internalType": "address",
          "name": "bidder",
          "type": "address"
        },
        {
          "indexed": false,
          "internalType": "uint256",
          "name": "amount",
          "type": "uint256"
        }
      ],
      "name": "BidPlaced",
      "type": "event"
    },
    {
      "anonymous": false,
      "inputs": [
        {
          "indexed": true,
          "internalType": "uint256",
          "name": "fromTokenId",
          "type": "uint256"
        },
        {
          "indexed": false,
          "internalType": "uint256",
          "name": "toTokenId",
          "type": "uint256"
        },
        {
          "indexed": true,
          "internalType": "address",
          "name": "from",
          "type": "address"
        },
        {
          "indexed": true,
          "internalType": "address",
          "name": "to",
          "type": "address"
        }
      ],
      "name": "ConsecutiveTransfer",
      "type": "event"
    },
    {
      "anonymous": false,
      "inputs": [
        {
          "indexed": false,
          "internalType": "address",
          "name": "operator",
          "type": "address"
        },
        {
          "indexed": false,
          "internalType": "address",
          "name": "from",
          "type": "address"
        },
        {
          "indexed": false,
          "internalType": "uint256",
          "name": "tokenId",
          "type": "uint256"
        }
      ],
      "name": "ERC721Received",
      "type": "event"
    },
    {
      "anonymous": false,
      "inputs": [
        {
          "indexed": true,
          "internalType": "address",
          "name": "previousOwner",
          "type": "address"
        },
        {
          "indexed": true,
          "internalType": "address",
          "name": "newOwner",
          "type": "address"
        }
      ],
      "name": "OwnershipTransferred",
      "type": "event"
    },
    {
      "anonymous": false,
      "inputs": [
        {
          "indexed": true,
          "internalType": "address",
          "name": "from",
          "type": "address"
        },
        {
          "indexed": true,
          "internalType": "address",
          "name": "to",
          "type": "address"
        },
        {
          "indexed": true,
          "internalType": "uint256",
          "name": "tokenId",
          "type": "uint256"
        }
      ],
      "name": "Transfer",
      "type": "event"
    },
    {
      "inputs": [],
      "name": "MAX_SUPPLY",
      "outputs": [
        {
          "internalType": "uint256",
          "name": "",
          "type": "uint256"
        }
      ],
      "stateMutability": "view",
      "type": "function"
    },
    {
      "inputs": [
        {
          "internalType": "address",
          "name": "to",
          "type": "address"
        },
        {
          "internalType": "uint256",
          "name": "tokenId",
          "type": "uint256"
        }
      ],
      "name": "approve",
      "outputs": [],
      "stateMutability": "payable",
      "type": "function"
    },
    {
      "inputs": [
        {
          "internalType": "uint256",
          "name": "",
          "type": "uint256"
        }
      ],
      "name": "auctions",
      "outputs": [
        {
          "internalType": "uint256",
          "name": "tokenId",
          "type": "uint256"
        },
        {
          "internalType": "uint256",
          "name": "startTime",
          "type": "uint256"
        },
        {
          "internalType": "uint256",
          "name": "duration",
          "type": "uint256"
        },
        {
          "internalType": "uint256",
          "name": "basePrice",
          "type": "uint256"
        },
        {
          "internalType": "uint256",
          "name": "highestBid",
          "type": "uint256"
        },
        {
          "internalType": "address",
          "name": "highestBidder",
          "type": "address"
        },
        {
          "internalType": "address",
          "name": "previousBidder",
          "type": "address"
        },
        {
          "internalType": "uint256",
          "name": "minimumBidIncrement",
          "type": "uint256"
        },
        {
          "internalType": "enum NFTAuctionV3.status",
          "name": "status",
          "type": "uint8"
        }
      ],
      "stateMutability": "view",
      "type": "function"
    },
    {
      "inputs": [
        {
          "internalType": "address",
          "name": "owner",
          "type": "address"
        }
      ],
      "name": "balanceOf",
      "outputs": [
        {
          "internalType": "uint256",
          "name": "",
          "type": "uint256"
        }
      ],
      "stateMutability": "view",
      "type": "function"
    },
    {
      "inputs": [],
      "name": "baseExtension",
      "outputs": [
        {
          "internalType": "string",
          "name": "",
          "type": "string"
        }
      ],
      "stateMutability": "view",
      "type": "function"
    },
    {
      "inputs": [],
      "name": "baseURI",
      "outputs": [
        {
          "internalType": "string",
          "name": "",
          "type": "string"
        }
      ],
      "stateMutability": "view",
      "type": "function"
    },
    {
      "inputs": [
        {
          "internalType": "uint256",
          "name": "tokenId",
          "type": "uint256"
        }
      ],
      "name": "bid",
      "outputs": [],
      "stateMutability": "payable",
      "type": "function"
    },
    {
      "inputs": [
        {
          "internalType": "uint256",
          "name": "",
          "type": "uint256"
        },
        {
          "internalType": "address",
          "name": "",
          "type": "address"
        },
        {
          "internalType": "uint256",
          "name": "",
          "type": "uint256"
        }
      ],
      "name": "bids",
      "outputs": [
        {
          "internalType": "uint256",
          "name": "",
          "type": "uint256"
        }
      ],
      "stateMutability": "view",
      "type": "function"
    },
    {
      "inputs": [
        {
          "internalType": "uint256",
          "name": "tokenId",
          "type": "uint256"
        }
      ],
      "name": "cancelAuction",
      "outputs": [],
      "stateMutability": "nonpayable",
      "type": "function"
    },
    {
      "inputs": [
        {
          "internalType": "uint256",
          "name": "tokenId",
          "type": "uint256"
        },
        {
          "internalType": "uint256",
          "name": "duration",
          "type": "uint256"
        },
        {
          "internalType": "uint256",
          "name": "basePrice",
          "type": "uint256"
        },
        {
          "internalType": "uint256",
          "name": "_minimumBidIncrement",
          "type": "uint256"
        }
      ],
      "name": "createAuction",
      "outputs": [],
      "stateMutability": "nonpayable",
      "type": "function"
    },
    {
      "inputs": [
        {
          "internalType": "uint256",
          "name": "",
          "type": "uint256"
        }
      ],
      "name": "currentAuctions",
      "outputs": [
        {
          "internalType": "uint256",
          "name": "tokenId",
          "type": "uint256"
        },
        {
          "internalType": "uint256",
          "name": "startTime",
          "type": "uint256"
        },
        {
          "internalType": "uint256",
          "name": "duration",
          "type": "uint256"
        },
        {
          "internalType": "uint256",
          "name": "basePrice",
          "type": "uint256"
        },
        {
          "internalType": "uint256",
          "name": "highestBid",
          "type": "uint256"
        },
        {
          "internalType": "address",
          "name": "highestBidder",
          "type": "address"
        },
        {
          "internalType": "address",
          "name": "previousBidder",
          "type": "address"
        },
        {
          "internalType": "uint256",
          "name": "minimumBidIncrement",
          "type": "uint256"
        },
        {
          "internalType": "enum NFTAuctionV3.status",
          "name": "status",
          "type": "uint8"
        }
      ],
      "stateMutability": "view",
      "type": "function"
    },
    {
      "inputs": [],
      "name": "dumpWallet",
      "outputs": [
        {
          "internalType": "address",
          "name": "",
          "type": "address"
        }
      ],
      "stateMutability": "view",
      "type": "function"
    },
    {
      "inputs": [
        {
          "internalType": "uint256",
          "name": "tokenId",
          "type": "uint256"
        }
      ],
      "name": "endAuction",
      "outputs": [],
      "stateMutability": "nonpayable",
      "type": "function"
    },
    {
      "inputs": [
        {
          "internalType": "uint256",
          "name": "tokenId",
          "type": "uint256"
        }
      ],
      "name": "getApproved",
      "outputs": [
        {
          "internalType": "address",
          "name": "",
          "type": "address"
        }
      ],
      "stateMutability": "view",
      "type": "function"
    },
    {
      "inputs": [
        {
          "internalType": "uint256",
          "name": "tokenId",
          "type": "uint256"
        }
      ],
      "name": "getAuctionForTokenId",
      "outputs": [
        {
          "components": [
            {
              "internalType": "uint256",
              "name": "tokenId",
              "type": "uint256"
            },
            {
              "internalType": "uint256",
              "name": "startTime",
              "type": "uint256"
            },
            {
              "internalType": "uint256",
              "name": "duration",
              "type": "uint256"
            },
            {
              "internalType": "uint256",
              "name": "basePrice",
              "type": "uint256"
            },
            {
              "internalType": "uint256",
              "name": "highestBid",
              "type": "uint256"
            },
            {
              "internalType": "address",
              "name": "highestBidder",
              "type": "address"
            },
            {
              "internalType": "address",
              "name": "previousBidder",
              "type": "address"
            },
            {
              "internalType": "string",
              "name": "tokenURI",
              "type": "string"
            },
            {
              "internalType": "uint256",
              "name": "minimumBidIncrement",
              "type": "uint256"
            },
            {
              "internalType": "enum NFTAuctionV3.status",
              "name": "status",
              "type": "uint8"
            },
            {
              "components": [
                {
                  "internalType": "address",
                  "name": "bidder",
                  "type": "address"
                },
                {
                  "internalType": "uint256",
                  "name": "amount",
                  "type": "uint256"
                }
              ],
              "internalType": "struct NFTAuctionV3.Bid[]",
              "name": "bids",
              "type": "tuple[]"
            }
          ],
          "internalType": "struct NFTAuctionV3.AuctionPayload",
          "name": "",
          "type": "tuple"
        }
      ],
      "stateMutability": "view",
      "type": "function"
    },
    {
      "inputs": [
        {
          "internalType": "uint256",
          "name": "tokenId",
          "type": "uint256"
        }
      ],
      "name": "getBids",
      "outputs": [
        {
          "components": [
            {
              "internalType": "address",
              "name": "bidder",
              "type": "address"
            },
            {
              "internalType": "uint256",
              "name": "amount",
              "type": "uint256"
            }
          ],
          "internalType": "struct NFTAuctionV3.Bid[]",
          "name": "",
          "type": "tuple[]"
        }
      ],
      "stateMutability": "view",
      "type": "function"
    },
    {
      "inputs": [],
      "name": "getEndedAuctions",
      "outputs": [
        {
          "components": [
            {
              "internalType": "uint256",
              "name": "tokenId",
              "type": "uint256"
            },
            {
              "internalType": "uint256",
              "name": "startTime",
              "type": "uint256"
            },
            {
              "internalType": "uint256",
              "name": "duration",
              "type": "uint256"
            },
            {
              "internalType": "uint256",
              "name": "basePrice",
              "type": "uint256"
            },
            {
              "internalType": "uint256",
              "name": "highestBid",
              "type": "uint256"
            },
            {
              "internalType": "address",
              "name": "highestBidder",
              "type": "address"
            },
            {
              "internalType": "address",
              "name": "previousBidder",
              "type": "address"
            },
            {
              "internalType": "string",
              "name": "tokenURI",
              "type": "string"
            },
            {
              "internalType": "uint256",
              "name": "minimumBidIncrement",
              "type": "uint256"
            },
            {
              "internalType": "enum NFTAuctionV3.status",
              "name": "status",
              "type": "uint8"
            },
            {
              "components": [
                {
                  "internalType": "address",
                  "name": "bidder",
                  "type": "address"
                },
                {
                  "internalType": "uint256",
                  "name": "amount",
                  "type": "uint256"
                }
              ],
              "internalType": "struct NFTAuctionV3.Bid[]",
              "name": "bids",
              "type": "tuple[]"
            }
          ],
          "internalType": "struct NFTAuctionV3.AuctionPayload[]",
          "name": "",
          "type": "tuple[]"
        }
      ],
      "stateMutability": "view",
      "type": "function"
    },
    {
      "inputs": [],
      "name": "getLiveAuctions",
      "outputs": [
        {
          "components": [
            {
              "internalType": "uint256",
              "name": "tokenId",
              "type": "uint256"
            },
            {
              "internalType": "uint256",
              "name": "startTime",
              "type": "uint256"
            },
            {
              "internalType": "uint256",
              "name": "duration",
              "type": "uint256"
            },
            {
              "internalType": "uint256",
              "name": "basePrice",
              "type": "uint256"
            },
            {
              "internalType": "uint256",
              "name": "highestBid",
              "type": "uint256"
            },
            {
              "internalType": "address",
              "name": "highestBidder",
              "type": "address"
            },
            {
              "internalType": "address",
              "name": "previousBidder",
              "type": "address"
            },
            {
              "internalType": "string",
              "name": "tokenURI",
              "type": "string"
            },
            {
              "internalType": "uint256",
              "name": "minimumBidIncrement",
              "type": "uint256"
            },
            {
              "internalType": "enum NFTAuctionV3.status",
              "name": "status",
              "type": "uint8"
            },
            {
              "components": [
                {
                  "internalType": "address",
                  "name": "bidder",
                  "type": "address"
                },
                {
                  "internalType": "uint256",
                  "name": "amount",
                  "type": "uint256"
                }
              ],
              "internalType": "struct NFTAuctionV3.Bid[]",
              "name": "bids",
              "type": "tuple[]"
            }
          ],
          "internalType": "struct NFTAuctionV3.AuctionPayload[]",
          "name": "",
          "type": "tuple[]"
        }
      ],
      "stateMutability": "view",
      "type": "function"
    },
    {
      "inputs": [],
      "name": "getUpcomingAuctions",
      "outputs": [
        {
          "components": [
            {
              "internalType": "uint256",
              "name": "tokenId",
              "type": "uint256"
            },
            {
              "internalType": "string",
              "name": "tokenURI",
              "type": "string"
            }
          ],
          "internalType": "struct NFTAuctionV3.UpcomingAuctionPayload[]",
          "name": "",
          "type": "tuple[]"
        }
      ],
      "stateMutability": "view",
      "type": "function"
    },
    {
      "inputs": [
        {
          "internalType": "address",
          "name": "owner",
          "type": "address"
        },
        {
          "internalType": "address",
          "name": "operator",
          "type": "address"
        }
      ],
      "name": "isApprovedForAll",
      "outputs": [
        {
          "internalType": "bool",
          "name": "",
          "type": "bool"
        }
      ],
      "stateMutability": "view",
      "type": "function"
    },
    {
      "inputs": [],
      "name": "name",
      "outputs": [
        {
          "internalType": "string",
          "name": "",
          "type": "string"
        }
      ],
      "stateMutability": "view",
      "type": "function"
    },
    {
      "inputs": [],
      "name": "nextTokenId",
      "outputs": [
        {
          "internalType": "uint256",
          "name": "",
          "type": "uint256"
        }
      ],
      "stateMutability": "view",
      "type": "function"
    },
    {
      "inputs": [
        {
          "internalType": "address",
          "name": "operator",
          "type": "address"
        },
        {
          "internalType": "address",
          "name": "from",
          "type": "address"
        },
        {
          "internalType": "uint256",
          "name": "tokenId",
          "type": "uint256"
        },
        {
          "internalType": "bytes",
          "name": "data",
          "type": "bytes"
        }
      ],
      "name": "onERC721Received",
      "outputs": [
        {
          "internalType": "bytes4",
          "name": "",
          "type": "bytes4"
        }
      ],
      "stateMutability": "nonpayable",
      "type": "function"
    },
    {
      "inputs": [],
      "name": "owner",
      "outputs": [
        {
          "internalType": "address",
          "name": "",
          "type": "address"
        }
      ],
      "stateMutability": "view",
      "type": "function"
    },
    {
      "inputs": [
        {
          "internalType": "string[]",
          "name": "uri",
          "type": "string[]"
        }
      ],
      "name": "ownerMint",
      "outputs": [],
      "stateMutability": "nonpayable",
      "type": "function"
    },
    {
      "inputs": [
        {
          "internalType": "uint256",
          "name": "tokenId",
          "type": "uint256"
        }
      ],
      "name": "ownerOf",
      "outputs": [
        {
          "internalType": "address",
          "name": "",
          "type": "address"
        }
      ],
      "stateMutability": "view",
      "type": "function"
    },
    {
      "inputs": [],
      "name": "readyToMint",
      "outputs": [
        {
          "internalType": "bool",
          "name": "",
          "type": "bool"
        }
      ],
      "stateMutability": "view",
      "type": "function"
    },
    {
      "inputs": [],
      "name": "renounceOwnership",
      "outputs": [],
      "stateMutability": "nonpayable",
      "type": "function"
    },
    {
      "inputs": [
        {
          "internalType": "address",
          "name": "from",
          "type": "address"
        },
        {
          "internalType": "address",
          "name": "to",
          "type": "address"
        },
        {
          "internalType": "uint256",
          "name": "tokenId",
          "type": "uint256"
        }
      ],
      "name": "safeTransferFrom",
      "outputs": [],
      "stateMutability": "payable",
      "type": "function"
    },
    {
      "inputs": [
        {
          "internalType": "address",
          "name": "from",
          "type": "address"
        },
        {
          "internalType": "address",
          "name": "to",
          "type": "address"
        },
        {
          "internalType": "uint256",
          "name": "tokenId",
          "type": "uint256"
        },
        {
          "internalType": "bytes",
          "name": "_data",
          "type": "bytes"
        }
      ],
      "name": "safeTransferFrom",
      "outputs": [],
      "stateMutability": "payable",
      "type": "function"
    },
    {
      "inputs": [
        {
          "internalType": "address",
          "name": "operator",
          "type": "address"
        },
        {
          "internalType": "bool",
          "name": "approved",
          "type": "bool"
        }
      ],
      "name": "setApprovalForAll",
      "outputs": [],
      "stateMutability": "nonpayable",
      "type": "function"
    },
    {
      "inputs": [
        {
          "internalType": "uint256",
          "name": "_minimumBidIncrement",
          "type": "uint256"
        },
        {
          "internalType": "uint256",
          "name": "tokenId",
          "type": "uint256"
        }
      ],
      "name": "setMinimumBidIncrement",
      "outputs": [],
      "stateMutability": "nonpayable",
      "type": "function"
    },
    {
      "inputs": [
        {
          "internalType": "bytes4",
          "name": "interfaceId",
          "type": "bytes4"
        }
      ],
      "name": "supportsInterface",
      "outputs": [
        {
          "internalType": "bool",
          "name": "",
          "type": "bool"
        }
      ],
      "stateMutability": "view",
      "type": "function"
    },
    {
      "inputs": [],
      "name": "symbol",
      "outputs": [
        {
          "internalType": "string",
          "name": "",
          "type": "string"
        }
      ],
      "stateMutability": "view",
      "type": "function"
    },
    {
      "inputs": [
        {
          "internalType": "uint256[]",
          "name": "tokenIds",
          "type": "uint256[]"
        }
      ],
      "name": "tokenURI",
      "outputs": [
        {
          "internalType": "string[]",
          "name": "",
          "type": "string[]"
        }
      ],
      "stateMutability": "view",
      "type": "function"
    },
    {
      "inputs": [
        {
          "internalType": "uint256",
          "name": "tokenId",
          "type": "uint256"
        }
      ],
      "name": "tokenURI",
      "outputs": [
        {
          "internalType": "string",
          "name": "",
          "type": "string"
        }
      ],
      "stateMutability": "view",
      "type": "function"
    },
    {
      "inputs": [
        {
          "internalType": "uint256",
          "name": "",
          "type": "uint256"
        }
      ],
      "name": "tokenURIs",
      "outputs": [
        {
          "internalType": "string",
          "name": "",
          "type": "string"
        }
      ],
      "stateMutability": "view",
      "type": "function"
    },
    {
      "inputs": [],
      "name": "totalSupply",
      "outputs": [
        {
          "internalType": "uint256",
          "name": "result",
          "type": "uint256"
        }
      ],
      "stateMutability": "view",
      "type": "function"
    },
    {
      "inputs": [
        {
          "internalType": "address",
          "name": "from",
          "type": "address"
        },
        {
          "internalType": "address",
          "name": "to",
          "type": "address"
        },
        {
          "internalType": "uint256",
          "name": "tokenId",
          "type": "uint256"
        }
      ],
      "name": "transferFrom",
      "outputs": [],
      "stateMutability": "payable",
      "type": "function"
    },
    {
      "inputs": [
        {
          "internalType": "address",
          "name": "newOwner",
          "type": "address"
        }
      ],
      "name": "transferOwnership",
      "outputs": [],
      "stateMutability": "nonpayable",
      "type": "function"
    },
    {
      "inputs": [],
      "name": "withdraw",
      "outputs": [],
      "stateMutability": "nonpayable",
      "type": "function"
    }
  ],
  "bytecode": "0x6001600b5560c06040526005608090815264173539b7b760d91b60a052600d906200002b908262000207565b50600f805460ff191660011790553480156200004657600080fd5b506040516200416338038062004163833981016040819052620000699162000382565b33838360026200007a838262000207565b50600362000089828262000207565b50600160005550506001600160a01b038116620000c057604051631e4fbdf760e01b81526000600482015260240160405180910390fd5b620000cb8162000110565b506001600a55600c620000df858262000207565b50600f80546001600160a01b0390921661010002610100600160a81b03199092169190911790555062000435915050565b600980546001600160a01b038381166001600160a01b0319831681179093556040519116919082907f8be0079c531659141344cd1fd0a4f28419497f9722a3daafe3b4186f6b6457e090600090a35050565b634e487b7160e01b600052604160045260246000fd5b600181811c908216806200018d57607f821691505b602082108103620001ae57634e487b7160e01b600052602260045260246000fd5b50919050565b601f8211156200020257600081815260208120601f850160051c81016020861015620001dd5750805b601f850160051c820191505b81811015620001fe57828155600101620001e9565b5050505b505050565b81516001600160401b0381111562000223576200022362000162565b6200023b8162000234845462000178565b84620001b4565b602080601f8311600181146200027357600084156200025a5750858301515b600019600386901b1c1916600185901b178555620001fe565b600085815260208120601f198616915b82811015620002a45788860151825594840194600190910190840162000283565b5085821015620002c35787850151600019600388901b60f8161c191681555b5050505050600190811b01905550565b600082601f830112620002e557600080fd5b81516001600160401b038082111562000302576200030262000162565b604051601f8301601f19908116603f011681019082821181831017156200032d576200032d62000162565b816040528381526020925086838588010111156200034a57600080fd5b600091505b838210156200036e57858201830151818301840152908201906200034f565b600093810190920192909252949350505050565b600080600080608085870312156200039957600080fd5b84516001600160401b0380821115620003b157600080fd5b620003bf88838901620002d3565b95506020870151915080821115620003d657600080fd5b620003e488838901620002d3565b94506040870151915080821115620003fb57600080fd5b506200040a87828801620002d3565b606087015190935090506001600160a01b03811681146200042a57600080fd5b939692955090935050565b613d1e80620004456000396000f3fe6080604052600436106102465760003560e01c80636c0360eb11610139578063b53fb508116100b6578063db0bd5c91161007a578063db0bd5c914610760578063ddf9ce2414610782578063e985e9c51461079c578063f10a69ec146107bc578063f2fde38b146107d1578063f804eb76146107f157600080fd5b8063b53fb508146106cb578063b88d4fde146106f8578063b9a2de3a1461070b578063c66828621461072b578063c87b56dd1461074057600080fd5b80638da5cb5b116100fd5780638da5cb5b1461063857806394fccfb21461065657806395d89b411461067657806396b5a7551461068b578063a22cb465146106ab57600080fd5b80636c0360eb146105b85780636c8b703f146105cd57806370a08231146105ed578063715018a61461060d57806375794a3c1461062257600080fd5b806332cb6b0c116101c7578063454a2ab31161018b578063454a2ab3146104ce578063571a26a0146104e15780636352211e1461055657806364b560d714610576578063652ed26e1461059857600080fd5b806332cb6b0c146103e6578063350eb203146103fc5780633ccfd60b1461048657806342842e0e1461049b578063431f21da146104ae57600080fd5b8063131d9a271161020e578063131d9a271461031c578063150b7a02146103495780631736afe61461038257806318160ddd146103a757806323b872dd146103d357600080fd5b806301ffc9a71461024b57806306fdde0314610280578063081812fc146102a2578063095ea7b3146102da57806310d4fe08146102ef575b600080fd5b34801561025757600080fd5b5061026b610266366004613131565b610811565b60405190151581526020015b60405180910390f35b34801561028c57600080fd5b50610295610863565b604051610277919061319e565b3480156102ae57600080fd5b506102c26102bd3660046131b1565b6108f5565b6040516001600160a01b039091168152602001610277565b6102ed6102e83660046131e1565b610930565b005b3480156102fb57600080fd5b5061030f61030a366004613274565b610940565b6040516102779190613309565b34801561032857600080fd5b5061033c6103373660046131b1565b610add565b60405161027791906133ba565b34801561035557600080fd5b506103696103643660046133cd565b610db4565b6040516001600160e01b03199091168152602001610277565b34801561038e57600080fd5b50600f546102c29061010090046001600160a01b031681565b3480156103b357600080fd5b506103c5600154600054036000190190565b604051908152602001610277565b6102ed6103e1366004613467565b610e14565b3480156103f257600080fd5b506103c561271081565b34801561040857600080fd5b506104716104173660046131b1565b601260205260009081526040902080546001820154600283015460038401546004850154600586015460068701546008880154600990980154969795969495939492936001600160a01b0392831693929091169160ff1689565b604051610277999897969594939291906134db565b34801561049257600080fd5b506102ed610f65565b6102ed6104a9366004613467565b6110b2565b3480156104ba57600080fd5b506102ed6104c9366004613539565b6110d2565b6102ed6104dc3660046131b1565b61136d565b3480156104ed57600080fd5b506104716104fc3660046131b1565b601060205260009081526040902080546001820154600283015460038401546004850154600586015460068701546008880154600990980154969795969495939492936001600160a01b0392831693929091169160ff1689565b34801561056257600080fd5b506102c26105713660046131b1565b6116ac565b34801561058257600080fd5b5061058b6116b7565b604051610277919061356b565b3480156105a457600080fd5b506102ed6105b3366004613636565b61187c565b3480156105c457600080fd5b50610295611906565b3480156105d957600080fd5b506102956105e83660046131b1565b611994565b3480156105f957600080fd5b506103c56106083660046136fb565b6119ad565b34801561061957600080fd5b506102ed6119f2565b34801561062e57600080fd5b506103c5600b5481565b34801561064457600080fd5b506009546001600160a01b03166102c2565b34801561066257600080fd5b506103c5610671366004613716565b611a04565b34801561068257600080fd5b50610295611a42565b34801561069757600080fd5b506102ed6106a63660046131b1565b611a51565b3480156106b757600080fd5b506102ed6106c636600461373b565b611c60565b3480156106d757600080fd5b506106eb6106e63660046131b1565b611ccc565b604051610277919061383b565b6102ed61070636600461384e565b611e8d565b34801561071757600080fd5b506102ed6107263660046131b1565b611ece565b34801561073757600080fd5b5061029561206b565b34801561074c57600080fd5b5061029561075b3660046131b1565b612078565b34801561076c57600080fd5b506107756120f3565b60405161027791906138c9565b34801561078e57600080fd5b50600f5461026b9060ff1681565b3480156107a857600080fd5b5061026b6107b736600461391e565b6123e3565b3480156107c857600080fd5b50610775612411565b3480156107dd57600080fd5b506102ed6107ec3660046136fb565b612765565b3480156107fd57600080fd5b506102ed61080c366004613951565b6127a0565b60006301ffc9a760e01b6001600160e01b03198316148061084257506380ac58cd60e01b6001600160e01b03198316145b8061085d5750635b5e139f60e01b6001600160e01b03198316145b92915050565b60606002805461087290613973565b80601f016020809104026020016040519081016040528092919081815260200182805461089e90613973565b80156108eb5780601f106108c0576101008083540402835291602001916108eb565b820191906000526020600020905b8154815290600101906020018083116108ce57829003601f168201915b5050505050905090565b600061090082612849565b610914576109146333d1c03960e21b612894565b506000908152600660205260409020546001600160a01b031690565b61093c8282600161289e565b5050565b6060600082516001600160401b0381111561095d5761095d61320b565b60405190808252806020026020018201604052801561099057816020015b606081526020019060019003908161097b5790505b50905060005b8351811015610ad6576109c18482815181106109b4576109b46139ad565b6020026020010151612849565b610a2a5760405162461bcd60e51b815260206004820152602f60248201527f4552433732314d657461646174613a2055524920717565727920666f72206e6f60448201526e3732bc34b9ba32b73a103a37b5b2b760891b60648201526084015b60405180910390fd5b6000610a34612941565b90506000815111610a545760405180602001604052806000815250610aa5565b80600e6000878581518110610a6b57610a6b6139ad565b60200260200101518152602001908152602001600020600d604051602001610a9593929190613a36565b6040516020818303038152906040525b838381518110610ab757610ab76139ad565b6020026020010181905250508080610ace90613a73565b915050610996565b5092915050565b6060600b54821115610b015760405162461bcd60e51b8152600401610a2190613a8c565b6000828152601060209081526040808320600781018054835181860281018601909452808452919493909190830182828015610b6657602002820191906000526020600020905b81546001600160a01b03168152600190910190602001808311610b48575b505050505090506000805b8251811015610bec57601160008781526020019081526020016000206000848381518110610ba157610ba16139ad565b60200260200101516001600160a01b03166001600160a01b031681526020019081526020016000208054905082610bd89190613ac3565b915080610be481613a73565b915050610b71565b506000816001600160401b03811115610c0757610c0761320b565b604051908082528060200260200182016040528015610c4c57816020015b6040805180820190915260008082526020820152815260200190600190039081610c255790505b5090506000805b8451811015610da857600088815260116020526040812086518290889085908110610c8057610c806139ad565b60200260200101516001600160a01b03166001600160a01b03168152602001908152602001600020805480602002602001604051908101604052809291908181526020018280548015610cf257602002820191906000526020600020905b815481526020019060010190808311610cde575b5050505050905060005b8151811015610d93576040518060400160405280888581518110610d2257610d226139ad565b60200260200101516001600160a01b03168152602001838381518110610d4a57610d4a6139ad565b6020026020010151815250858581518110610d6757610d676139ad565b60200260200101819052508380610d7d90613a73565b9450508080610d8b90613a73565b915050610cfc565b50508080610da090613a73565b915050610c53565b50909695505050505050565b604080516001600160a01b038088168252861660208201529081018490526000907f941a9d9a9af7f97737c018d13918859e12f44e16c4b4c6ac922dacf021cfbf149060600160405180910390a150630a85bd0160e11b95945050505050565b6000610e1f82612950565b90506001600160a01b038085169082168114610e4457610e4462a1148160e81b612894565b600083815260066020526040902080543380821490841417610e7e57610e6a87336123e3565b610e7e57610e7e632ce44b5f60e11b612894565b8015610e8957600082555b6001600160a01b038781166000908152600560205260408082208054600019019055918816808252919020805460010190554260a01b17600160e11b17600086815260046020526040902055600160e11b8416610f145760018501600081815260046020526040902054610f12576000548114610f125760008181526004602052604090208590555b505b6001600160a01b0386168581857fddf252ad1be2c89b69c2b068fc378daa952ba7f163c4a11628f55a4df523b3ef600080a480610f5b57610f5b633a954ecd60e21b612894565b5050505050505050565b610f6d6129e8565b610f75612a15565b600f5460ff16610fd75760405162461bcd60e51b815260206004820152602760248201527f7361746973667920616c6c2061756374696f6e73206265666f7265207769746860448201526664726177696e6760c81b6064820152608401610a21565b478061101a5760405162461bcd60e51b81526020600482015260126024820152714e6f2045544820746f20776974686472617760701b6044820152606401610a21565b604051600090339083908381818185875af1925050503d806000811461105c576040519150601f19603f3d011682016040523d82523d6000602084013e611061565b606091505b50509050806110a45760405162461bcd60e51b815260206004820152600f60248201526e151c985b9cd9995c8819985a5b1959608a1b6044820152606401610a21565b50506110b06001600a55565b565b6110cd83838360405180602001604052806000815250611e8d565b505050565b6110da6129e8565b600b548411156110fc5760405162461bcd60e51b8152600401610a2190613ad6565b6000831161114c5760405162461bcd60e51b815260206004820152601f60248201527f4475726174696f6e206d7573742062652067726561746572207468616e2030006044820152606401610a21565b600b548411156111c45760405162461bcd60e51b815260206004820152603860248201527f546f6b656e204944206d757374206265206c657373207468616e206f7220657160448201527f75616c20746f20746865206e65787420746f6b656e20494400000000000000006064820152608401610a21565b6000821161121e5760405162461bcd60e51b815260206004820152602160248201527f42617365207072696365206d7573742062652067726561746572207468616e206044820152600360fc1b6064820152608401610a21565b604080516101408101825285815260006020808301828152838501888152606085018881526080860185815260a0870186815260c0880187815289518881528088018b5260e08a019081526101008a018c90526101208a018990528e8952601088529990972088518155945160018601559251600285015590516003840155516004830155516005820180546001600160a01b03199081166001600160a01b0393841617909155935160068301805490951691161790925592518051929384936112ee9260078501920190613024565b50610100820151600882015561012082015160098201805460ff1916600183600481111561131e5761131e6134a3565b02179055505060408051878152602081018790529081018590527fd6eddd1118d71820909c1197aa966dbc15ed6f508554252169cc3d5ccac756ca915060600160405180910390a15050505050565b611375612a15565b600b548111156113975760405162461bcd60e51b8152600401610a2190613ad6565b60008181526010602052604090205481146113c45760405162461bcd60e51b8152600401610a2190613b02565b600160008281526010602052604090206009015460ff1660048111156113ec576113ec6134a3565b036114565760008181526010602052604090206002810154600190910154429161141591613ac3565b116114565760405162461bcd60e51b8152602060048201526011602482015270105d58dd1a5bdb881a185cc8195b991959607a1b6044820152606401610a21565b60008181526010602052604081206009015460ff16600481111561147c5761147c6134a3565b03611504576000818152601060205260409020600301543410156114d75760405162461bcd60e51b81526020600482015260126024820152711a5b9d985b1a5908195d1a195c881cd95b9d60721b6044820152606401610a21565b6000818152601060205260409020426001808301919091556009909101805460ff191690911790556115bb565b600081815260106020526040902060088101546004909101546115279190613ac3565b34101561156b5760405162461bcd60e51b81526020600482015260126024820152711a5b9d985b1a5908195d1a195c881cd95b9d60721b6044820152606401610a21565b600081815260106020526040808220600681015460049091015491516001600160a01b039091169282156108fc02929190818181858888f193505050501580156115b9573d6000803e3d6000fd5b505b6000818152601160209081526040808320338085528184528285208054600181810183558288528688203492018290558888526010875294872060048101919091556005810180546001600160a01b0319908116851790915560069091018054909116831790559452909152905490036116615760008181526010602090815260408220600701805460018101825590835291200180546001600160a01b031916331790555b60408051828152336020820152348183015290517f0e54eff26401bf69b81b26f60bd85ef47f5d85275c1d268d84f68d6897431c479181900360600190a16116a96001600a55565b50565b600061085d82612950565b6060600060015b600b548110156116fd5760008181526010602052604090205481146116eb57816116e781613a73565b9250505b806116f581613a73565b9150506116be565b506000816001600160401b038111156117185761171861320b565b60405190808252806020026020018201604052801561175e57816020015b6040805180820190915260008152606060208201528152602001906001900390816117365790505b509050600060015b600b54811015611873576000818152601060205260409020548114611861576040518060400160405280828152602001600e600084815260200190815260200160002080546117b490613973565b80601f01602080910402602001604051908101604052809291908181526020018280546117e090613973565b801561182d5780601f106118025761010080835404028352916020019161182d565b820191906000526020600020905b81548152906001019060200180831161181057829003601f168201915b5050505050815250838381518110611847576118476139ad565b6020026020010181905250818061185d90613a73565b9250505b8061186b81613a73565b915050611766565b50909392505050565b6118846129e8565b600f5460ff166118e55760405162461bcd60e51b815260206004820152602660248201527f4e6f7420726561647920746f206d696e742c61756374696f6e7320696e2070726044820152656f677265737360d01b6064820152608401610a21565b6118f030600a612a3f565b6118f981612a59565b50600f805460ff19169055565b600c805461191390613973565b80601f016020809104026020016040519081016040528092919081815260200182805461193f90613973565b801561198c5780601f106119615761010080835404028352916020019161198c565b820191906000526020600020905b81548152906001019060200180831161196f57829003601f168201915b505050505081565b600e602052600090815260409020805461191390613973565b60006001600160a01b0382166119cd576119cd6323d3ad8160e21b612894565b506001600160a01b03166000908152600560205260409020546001600160401b031690565b6119fa6129e8565b6110b06000612abe565b60116020528260005260406000206020528160005260406000208181548110611a2c57600080fd5b9060005260206000200160009250925050505481565b60606003805461087290613973565b611a596129e8565b600b54811115611a7b5760405162461bcd60e51b8152600401610a2190613ad6565b6000818152601060205260409020548114611aa85760405162461bcd60e51b8152600401610a2190613b02565b600160008281526010602052604090206009015460ff166004811115611ad057611ad06134a3565b1480611aff575060008181526010602052604081206009015460ff166004811115611afd57611afd6134a3565b145b611b575760405162461bcd60e51b8152602060048201526024808201527f41756374696f6e206973206e6f74206c697665206f7220616c726561647920656044820152631b99195960e21b6064820152608401610a21565b600160008281526010602052604090206009015460ff166004811115611b7f57611b7f6134a3565b03611bd457600081815260106020526040808220600581015460049091015491516001600160a01b039091169282156108fc02929190818181858888f19350505050158015611bd2573d6000803e3d6000fd5b505b600f5460008281526010602052604081206005810180546101009094046001600160a01b03166001600160a01b0319909416939093179092556004808301919091556009909101805460ff191660018302179055506040518181527f2809c7e17bf978fbc7194c0a694b638c4215e9140cacc6c38ca36010b45697df906020015b60405180910390a150565b3360008181526007602090815260408083206001600160a01b03871680855290835292819020805460ff191686151590811790915590519081529192917f17307eab39ab6107e8899845ad3d59bd9653f200f220920489ca2b5937696c31910160405180910390a35050565b611cd4613089565b600b54821115611cf65760405162461bcd60e51b8152600401610a2190613a8c565b6000828152601060205260409020548214611d235760405162461bcd60e51b8152600401610a2190613b02565b60408051610160810182526000848152601060209081528382208054808552600182015483860152600282015485870152600382015460608601526004820154608086015260058201546001600160a01b0390811660a087015260069092015490911660c08501528252600e9052918220805460e083019190611da590613973565b80601f0160208091040260200160405190810160405280929190818152602001828054611dd190613973565b8015611e1e5780601f10611df357610100808354040283529160200191611e1e565b820191906000526020600020905b815481529060010190602001808311611e0157829003601f168201915b505050918352505060008581526010602081815260408084206008810154838701529389905291905260099091015491019060ff166004811115611e6457611e646134a3565b8152600085815260106020908152604090912054910190611e8490610add565b90529392505050565b611e98848484610e14565b6001600160a01b0383163b15611ec857611eb484848484612b10565b611ec857611ec86368d2bf6b60e11b612894565b50505050565b611ed66129e8565b600b54811115611ef85760405162461bcd60e51b8152600401610a2190613ad6565b6000818152601060205260409020548114611f255760405162461bcd60e51b8152600401610a2190613b02565b600160008281526010602052604090206009015460ff166004811115611f4d57611f4d6134a3565b1480611f7c575060008181526010602052604081206009015460ff166004811115611f7a57611f7a6134a3565b145b611fbe5760405162461bcd60e51b815260206004820152601360248201527241756374696f6e206973206e6f74206c69766560681b6044820152606401610a21565b6000818152601060205260409020600901805460ff19166002179055611fe2612bef565b1561203b57611fef612d33565b61203b5760405162461bcd60e51b815260206004820152601760248201527f4661696c656420746f207472616e73666572204e4654730000000000000000006044820152606401610a21565b6040518181527f45806e512b1f4f10e33e8b3cb64d1d11d998d8c554a95e0841fc1c701278bd5d90602001611c55565b600d805461191390613973565b606061208382612849565b61209757612097630a14c4b560e41b612894565b60006120a1612941565b905080516000036120c157604051806020016040528060008152506120ec565b806120cb84612ec3565b6040516020016120dc929190613b32565b6040516020818303038152906040525b9392505050565b6060600060015b600b54811161217f57600160008281526010602052604090206009015460ff16600481111561212b5761212b6134a3565b148061215a575060008181526010602052604081206009015460ff166004811115612158576121586134a3565b145b1561216d578161216981613a73565b9250505b8061217781613a73565b9150506120fa565b506000816001600160401b0381111561219a5761219a61320b565b6040519080825280602002602001820160405280156121d357816020015b6121c0613089565b8152602001906001900390816121b85790505b509050600060015b600b54811161187357600160008281526010602052604090206009015460ff16600481111561220c5761220c6134a3565b148061223b575060008181526010602052604081206009015460ff166004811115612239576122396134a3565b145b156123d15760408051610160810182526000838152601060209081528382208054808552600182015483860152600282015485870152600382015460608601526004820154608086015260058201546001600160a01b0390811660a087015260069092015490911660c08501528252600e905291909120805460e0830191906122c390613973565b80601f01602080910402602001604051908101604052809291908181526020018280546122ef90613973565b801561233c5780601f106123115761010080835404028352916020019161233c565b820191906000526020600020905b81548152906001019060200180831161231f57829003601f168201915b505050918352505060008381526010602081815260408084206008810154838701529387905291905260099091015491019060ff166004811115612382576123826134a3565b81526000838152601060209081526040909120549101906123a290610add565b8152508383815181106123b7576123b76139ad565b602002602001018190525081806123cd90613a73565b9250505b806123db81613a73565b9150506121db565b6001600160a01b03918216600090815260076020908152604080832093909416825291909152205460ff1690565b6060600060015b600b5481116124cf57600260008281526010602052604090206009015460ff166004811115612449576124496134a3565b148061247a5750600360008281526010602052604090206009015460ff166004811115612478576124786134a3565b145b806124aa5750600460008281526010602052604090206009015460ff1660048111156124a8576124a86134a3565b145b156124bd57816124b981613a73565b9250505b806124c781613a73565b915050612418565b506000816001600160401b038111156124ea576124ea61320b565b60405190808252806020026020018201604052801561252357816020015b612510613089565b8152602001906001900390816125085790505b509050600060015b600b54811161187357600260008281526010602052604090206009015460ff16600481111561255c5761255c6134a3565b148061258d5750600360008281526010602052604090206009015460ff16600481111561258b5761258b6134a3565b145b806125bd5750600460008281526010602052604090206009015460ff1660048111156125bb576125bb6134a3565b145b156127535760408051610160810182526000838152601060209081528382208054808552600182015483860152600282015485870152600382015460608601526004820154608086015260058201546001600160a01b0390811660a087015260069092015490911660c08501528252600e905291909120805460e08301919061264590613973565b80601f016020809104026020016040519081016040528092919081815260200182805461267190613973565b80156126be5780601f10612693576101008083540402835291602001916126be565b820191906000526020600020905b8154815290600101906020018083116126a157829003601f168201915b505050918352505060008381526010602081815260408084206008810154838701529387905291905260099091015491019060ff166004811115612704576127046134a3565b815260008381526010602090815260409091205491019061272490610add565b815250838381518110612739576127396139ad565b6020026020010181905250818061274f90613a73565b9250505b8061275d81613a73565b91505061252b565b61276d6129e8565b6001600160a01b03811661279757604051631e4fbdf760e01b815260006004820152602401610a21565b6116a981612abe565b6127a86129e8565b600b548111156127ca5760405162461bcd60e51b8152600401610a2190613a8c565b600160008281526010602052604090206009015460ff1660048111156127f2576127f26134a3565b146128355760405162461bcd60e51b815260206004820152601360248201527241756374696f6e206973206e6f74206c69766560681b6044820152606401610a21565b600090815260106020526040902060080155565b60008160011161288f5760005482101561288f5760005b50600082815260046020526040902054806128855761287e83613b61565b9250612860565b600160e01b161590505b919050565b8060005260046000fd5b60006128a9836116ac565b90508180156128c15750336001600160a01b03821614155b156128e4576128d081336123e3565b6128e4576128e46367d9dca160e11b612894565b60008381526006602052604080822080546001600160a01b0319166001600160a01b0388811691821790925591518693918516917f8c5be1e5ebec7d5bd14f71427d1e84f3dd0314c0f7b2291e5b200ac8c7c3b92591a450505050565b6060600c805461087290613973565b6000816001116129d85750600081815260046020526040902054806129c857600054821061298857612988636f96cda160e11b612894565b5b5060001901600081815260046020526040902054801561298957600160e01b81166129b357919050565b6129c3636f96cda160e11b612894565b612989565b600160e01b81166129d857919050565b61288f636f96cda160e11b612894565b6009546001600160a01b031633146110b05760405163118cdaa760e01b8152336004820152602401610a21565b6002600a5403612a3857604051633ee5aeb560e01b815260040160405180910390fd5b6002600a55565b61093c828260405180602001604052806000815250612f07565b60005b815181101561093c57818181518110612a7757612a776139ad565b6020026020010151600e6000600b5481526020019081526020016000209081612aa09190613bc6565b50600b8054906000612ab183613a73565b9091555050600101612a5c565b600980546001600160a01b038381166001600160a01b0319831681179093556040519116919082907f8be0079c531659141344cd1fd0a4f28419497f9722a3daafe3b4186f6b6457e090600090a35050565b604051630a85bd0160e11b81526000906001600160a01b0385169063150b7a0290612b45903390899088908890600401613c85565b6020604051808303816000875af1925050508015612b80575060408051601f3d908101601f19168201909252612b7d91810190613cb8565b60015b612bd2573d808015612bae576040519150601f19603f3d011682016040523d82523d6000602084013e612bb3565b606091505b508051612bca57612bca6368d2bf6b60e11b612894565b805181602001fd5b6001600160e01b031916630a85bd0160e11b149050949350505050565b6000600a600b541115612ca5576000600b8054612c0c9190613cd5565b90505b6001600b54612c1e9190613cd5565b811015612c9f57600260008281526010602052604090206009015460ff166004811115612c4d57612c4d6134a3565b141580612c805750600460008281526010602052604090206009015460ff166004811115612c7d57612c7d6134a3565b14155b15612c8d57600091505090565b80612c9781613a73565b915050612c0f565b50612d2d565b60015b600b811015612d2b57600260008281526010602052604090206009015460ff166004811115612cd957612cd96134a3565b141580612d0c5750600460008281526010602052604090206009015460ff166004811115612d0957612d096134a3565b14155b15612d1957600091505090565b80612d2381613a73565b915050612ca8565b505b50600190565b6000612d3d6129e8565b600a600b541115612e18576000600b8054612d589190613cd5565b90505b6001600b54612d6a9190613cd5565b811015612e1057600081815260106020526040902060050154612d989030906001600160a01b0316836110b2565b600f546000828152601060205260409020600501546001600160a01b039081166101009092041614612dcb576003612dce565b60045b6000828152601060205260409020600901805460ff19166001836004811115612df957612df96134a3565b021790555080612e0881613a73565b915050612d5b565b506001905090565b60015b600b811015612e1057600081815260106020526040902060050154612e4b9030906001600160a01b0316836110b2565b600f546000828152601060205260409020600501546001600160a01b039081166101009092041614612e7e576003612e81565b60045b6000828152601060205260409020600901805460ff19166001836004811115612eac57612eac6134a3565b021790555080612ebb81613a73565b915050612e1b565b606060a06040510180604052602081039150506000815280825b600183039250600a81066030018353600a900480612edd5750819003601f19909101908152919050565b612f118383612f6b565b6001600160a01b0383163b156110cd576000548281035b612f3b6000868380600101945086612b10565b612f4f57612f4f6368d2bf6b60e11b612894565b818110612f28578160005414612f6457600080fd5b5050505050565b60005481612f8357612f8363b562e8dd60e01b612894565b60008181526004602090815260408083206001600160a01b0387164260a01b6001881460e11b1781179091558084526005909252909120805468010000000000000001850201905580612fdf57612fdf622e076360e81b612894565b818301825b808360007fddf252ad1be2c89b69c2b068fc378daa952ba7f163c4a11628f55a4df523b3ef600080a4818160010191508103612fe4575060005550505050565b828054828255906000526020600020908101928215613079579160200282015b8281111561307957825182546001600160a01b0319166001600160a01b03909116178255602090920191600190910190613044565b50613085929150613106565b5090565b604051806101600160405280600081526020016000815260200160008152602001600081526020016000815260200160006001600160a01b0316815260200160006001600160a01b031681526020016060815260200160008152602001600060048111156130f9576130f96134a3565b8152602001606081525090565b5b808211156130855760008155600101613107565b6001600160e01b0319811681146116a957600080fd5b60006020828403121561314357600080fd5b81356120ec8161311b565b60005b83811015613169578181015183820152602001613151565b50506000910152565b6000815180845261318a81602086016020860161314e565b601f01601f19169290920160200192915050565b6020815260006120ec6020830184613172565b6000602082840312156131c357600080fd5b5035919050565b80356001600160a01b038116811461288f57600080fd5b600080604083850312156131f457600080fd5b6131fd836131ca565b946020939093013593505050565b634e487b7160e01b600052604160045260246000fd5b604051601f8201601f191681016001600160401b03811182821017156132495761324961320b565b604052919050565b60006001600160401b0382111561326a5761326a61320b565b5060051b60200190565b6000602080838503121561328757600080fd5b82356001600160401b0381111561329d57600080fd5b8301601f810185136132ae57600080fd5b80356132c16132bc82613251565b613221565b81815260059190911b820183019083810190878311156132e057600080fd5b928401925b828410156132fe578335825292840192908401906132e5565b979650505050505050565b6000602080830181845280855180835260408601915060408160051b870101925083870160005b8281101561335e57603f1988860301845261334c858351613172565b94509285019290850190600101613330565b5092979650505050505050565b600081518084526020808501945080840160005b838110156133af57815180516001600160a01b03168852830151838801526040909601959082019060010161337f565b509495945050505050565b6020815260006120ec602083018461336b565b6000806000806000608086880312156133e557600080fd5b6133ee866131ca565b94506133fc602087016131ca565b93506040860135925060608601356001600160401b038082111561341f57600080fd5b818801915088601f83011261343357600080fd5b81358181111561344257600080fd5b89602082850101111561345457600080fd5b9699959850939650602001949392505050565b60008060006060848603121561347c57600080fd5b613485846131ca565b9250613493602085016131ca565b9150604084013590509250925092565b634e487b7160e01b600052602160045260246000fd5b600581106134d757634e487b7160e01b600052602160045260246000fd5b9052565b898152602081018990526040810188905260608101879052608081018690526001600160a01b0385811660a0830152841660c082015260e08101839052610120810161352b6101008301846134b9565b9a9950505050505050505050565b6000806000806080858703121561354f57600080fd5b5050823594602084013594506040840135936060013592509050565b60006020808301818452808551808352604092508286019150828160051b87010184880160005b838110156135d157888303603f190185528151805184528701518784018790526135be87850182613172565b9588019593505090860190600101613592565b509098975050505050505050565b60006001600160401b038311156135f8576135f861320b565b61360b601f8401601f1916602001613221565b905082815283838301111561361f57600080fd5b828260208301376000602084830101529392505050565b6000602080838503121561364957600080fd5b82356001600160401b038082111561366057600080fd5b818501915085601f83011261367457600080fd5b81356136826132bc82613251565b81815260059190911b830184019084810190888311156136a157600080fd5b8585015b838110156136ee578035858111156136bd5760008081fd5b8601603f81018b136136cf5760008081fd5b6136e08b89830135604084016135df565b8452509186019186016136a5565b5098975050505050505050565b60006020828403121561370d57600080fd5b6120ec826131ca565b60008060006060848603121561372b57600080fd5b83359250613493602085016131ca565b6000806040838503121561374e57600080fd5b613757836131ca565b91506020830135801515811461376c57600080fd5b809150509250929050565b6000610160825184526020830151602085015260408301516040850152606083015160608501526080830151608085015260a08301516137c260a08601826001600160a01b03169052565b5060c08301516137dd60c08601826001600160a01b03169052565b5060e08301518160e08601526137f582860182613172565b91505061010080840151818601525061012080840151613817828701826134b9565b50506101408084015185830382870152613831838261336b565b9695505050505050565b6020815260006120ec6020830184613777565b6000806000806080858703121561386457600080fd5b61386d856131ca565b935061387b602086016131ca565b92506040850135915060608501356001600160401b0381111561389d57600080fd5b8501601f810187136138ae57600080fd5b6138bd878235602084016135df565b91505092959194509250565b6000602080830181845280855180835260408601915060408160051b870101925083870160005b8281101561335e57603f1988860301845261390c858351613777565b945092850192908501906001016138f0565b6000806040838503121561393157600080fd5b61393a836131ca565b9150613948602084016131ca565b90509250929050565b6000806040838503121561396457600080fd5b50508035926020909101359150565b600181811c9082168061398757607f821691505b6020821081036139a757634e487b7160e01b600052602260045260246000fd5b50919050565b634e487b7160e01b600052603260045260246000fd5b600081546139d081613973565b600182811680156139e857600181146139fd57613a2c565b60ff1984168752821515830287019450613a2c565b8560005260208060002060005b85811015613a235781548a820152908401908201613a0a565b50505082870194505b5050505092915050565b60008451613a4881846020890161314e565b613831613a57828501876139c3565b856139c3565b634e487b7160e01b600052601160045260246000fd5b600060018201613a8557613a85613a5d565b5060010190565b60208082526017908201527f546f6b656e20494420646f6573206e6f74206578697374000000000000000000604082015260600190565b8082018082111561085d5761085d613a5d565b6020808252601290820152711b999d08191bd95cc81b9bdd08195e1a5cdd60721b604082015260600190565b602080825260169082015275185d58dd1a5bdb881b9bdd081b1a5cdd1959081e595d60521b604082015260600190565b60008351613b4481846020880161314e565b835190830190613b5881836020880161314e565b01949350505050565b600081613b7057613b70613a5d565b506000190190565b601f8211156110cd57600081815260208120601f850160051c81016020861015613b9f5750805b601f850160051c820191505b81811015613bbe57828155600101613bab565b505050505050565b81516001600160401b03811115613bdf57613bdf61320b565b613bf381613bed8454613973565b84613b78565b602080601f831160018114613c285760008415613c105750858301515b600019600386901b1c1916600185901b178555613bbe565b600085815260208120601f198616915b82811015613c5757888601518255948401946001909101908401613c38565b5085821015613c755787850151600019600388901b60f8161c191681555b5050505050600190811b01905550565b6001600160a01b038581168252841660208201526040810183905260806060820181905260009061383190830184613172565b600060208284031215613cca57600080fd5b81516120ec8161311b565b8181038181111561085d5761085d613a5d56fea264697066735822122028638de4f1da4fb3de96a34f535e639b507124a196dda4a3519d88939c6804b164736f6c63430008140033",
  "linkReferences": {},
  "deployedLinkReferences": {}
}